010100AGUEDA                        00000000190  27880  23103  152    775    AOC            51     0  CDS            5986   0  FSP            110    0  LCI            50     0  MES            80     0  MRPP           66     0  PCP            956    0                           PDC            106    0  PPD            6716   0  PPM            86     0                           PS             7820   0  UDP            149    0
010200ALBERGARIA A VELHA            00000000080  13323  10636  49     304    AOC            31     0  CDS            3307   0  FSP            38     0  LCI            27     0  MES            87     0  MRPP           37     0  PCP            226    0                           PDC            69     0  PPD            3996   0  PPM            40     0                           PS             2345   0  UDP            80     0
010300ANADIA                        00000000130  20469  16834  116    634    AOC            47     0  CDS            3978   0  FSP            47     0  LCI            33     0  MES            54     0  MRPP           60     0  PCP            328    0                           PDC            83     0  PPD            7225   0  PPM            78     0                           PS             4093   0  UDP            58     0
010400AROUCA                        00000000200  14871  12358  81     584    AOC            53     0  CDS            4409   0  FSP            38     0  LCI            27     0  MES            57     0  MRPP           69     0  PCP            147    0                           PDC            73     0  PPD            4826   0  PPM            50     0                           PS             1762   0  UDP            182    0
010500AVEIRO                        00000000120  38429  32609  193    1050   AOC            102    0  CDS            9498   0  FSP            82     0  LCI            69     0  MES            111    0  MRPP           249    0  PCP            1423   0                           PDC            201    0  PPD            9692   0  PPM            138    0                           PS             9493   0  UDP            308    0
010600CASTELO DE PAIVA              00000000090  9671   8077   73     274    AOC            41     0  CDS            1676   0  FSP            50     0  LCI            28     0  MES            45     0  MRPP           48     0  PCP            201    0                           PDC            73     0  PPD            2965   0  PPM            46     0                           PS             2467   0  UDP            90     0
010700ESPINHO                       00000000050  20056  17989  100    443    AOC            59     0  CDS            2486   0  FSP            49     0  LCI            52     0  MES            50     0  MRPP           40     0  PCP            1835   0                           PDC            48     0  PPD            5115   0  PPM            37     0                           PS             7569   0  UDP            106    0
010800ESTARREJA                     00000000070  16996  13885  242    546    AOC            45     0  CDS            2926   0  FSP            67     0  LCI            31     0  MES            60     0  MRPP           35     0  PCP            570    0                           PDC            84     0  PPD            5969   0  PPM            65     0                           PS             3128   0  UDP            117    0
010900SANTA MARIA DA FEIRA          00000000310  61841  54879  270    1940   AOC            165    0  CDS            7407   0  FSP            204    0  LCI            177    0  MES            246    0  MRPP           197    0  PCP            1987   0                           PDC            226    0  PPD            18732  0  PPM            161    0                           PS             22631  0  UDP            536    0
011000ILHAVO                        00000000040  18463  15435  89     531    AOC            62     0  CDS            3078   0  FSP            74     0  LCI            28     0  MES            47     0  MRPP           87     0  PCP            465    0                           PDC            93     0  PPD            6245   0  PPM            53     0                           PS             4473   0  UDP            110    0
011100MEALHADA                      00000000080  12407  9558   93     488    AOC            37     0  CDS            856    0  FSP            65     0  LCI            31     0  MES            32     0  MRPP           49     0  PCP            576    0                           PDC            39     0  PPD            2678   0  PPM            36     0                           PS             4513   0  UDP            65     0
011200MURTOSA                       00000000040  7091   5432   45     297    AOC            18     0  CDS            1225   0  FSP            11     0  LCI            16     0  MES            16     0  MRPP           19     0  PCP            51     0                           PDC            26     0  PPD            2917   0  PPM            15     0                           PS             739    0  UDP            37     0
011300OLIVEIRA DE AZEMEIS           00000000190  36938  32517  180    1060   AOC            77     0  CDS            7003   0  FSP            142    0  LCI            99     0  MES            312    0  MRPP           80     0  PCP            841    0                           PDC            154    0  PPD            11572  0  PPM            114    0                           PS             10544  0  UDP            339    0
011400OLIVEIRA DO BAIRRO            00000000060  11733  9747   41     400    AOC            20     0  CDS            2964   0  FSP            19     0  LCI            16     0  MES            20     0  MRPP           45     0  PCP            119    0                           PDC            44     0  PPD            4755   0  PPM            32     0                           PS             1221   0  UDP            51     0
011500OVAR                          00000000070  26496  22339  112    929    AOC            43     0  CDS            2999   0  FSP            126    0  LCI            64     0  MES            110    0  MRPP           50     0  PCP            1477   0                           PDC            87     0  PPD            7143   0  PPM            77     0                           PS             8781   0  UDP            341    0
011600SAO JOAO DA MADEIRA           00000000010  10471  9548   42     344    AOC            20     0  CDS            1928   0  FSP            34     0  LCI            16     0  MES            72     0  MRPP           18     0  PCP            577    0                           PDC            23     0  PPD            2278   0  PPM            16     0                           PS             4021   0  UDP            159    0
011700SEVER DO VOUGA                00000000080  8952   7724   294    323    AOC            21     0  CDS            3189   0  FSP            16     0  LCI            17     0  MES            28     0  MRPP           40     0  PCP            145    0                           PDC            45     0  PPD            2582   0  PPM            31     0                           PS             910    0  UDP            83     0
011800VAGOS                         00000000080  11844  9591   59     342    AOC            22     0  CDS            4148   0  FSP            12     0  LCI            11     0  MES            31     0  MRPP           30     0  PCP            64     0                           PDC            59     0  PPD            3660   0  PPM            33     0                           PS             1066   0  UDP            54     0
011900VALE DE CAMBRA                00000000090  14847  12197  65     475    AOC            38     0  CDS            3779   0  FSP            48     0  LCI            28     0  MES            58     0  MRPP           108    0  PCP            210    0                           PDC            81     0  PPD            4639   0  PPM            52     0                           PS             2506   0  UDP            110    0
020100ALJUSTREL                     00000000040  9593   8563   55     167    AOC            28     0  CDS            190    0  FSP            66     0  LCI            19     0  MES            75     0  MRPP           13     0  PCP            4766   0                                                    PPD            374    0  PPM            29     0                           PS             2696   0  UDP            85     0
020200ALMODOVAR                     00000000070  7871   5491   61     243    AOC            62     0  CDS            272    0  FSP            136    0  LCI            41     0  MES            88     0  MRPP           25     0  PCP            1101   0                                                    PPD            899    0  PPM            63     0                           PS             2387   0  UDP            113    0
020300ALVITO                        00000000020  2286   2046   34     113    AOC            11     0  CDS            139    0  FSP            50     0  LCI            5      0  MES            37     0  MRPP           4      0  PCP            836    0                                                    PPD            239    0  PPM            12     0                           PS             529    0  UDP            37     0
020400BARRANCOS                     00000000010  1678   1403   24     25     AOC            12     0  CDS            48     0  FSP            30     0  LCI            7      0  MES            14     0  MRPP           5      0  PCP            533    0                                                    PPD            84     0  PPM            8      0                           PS             573    0  UDP            40     0
020500BEJA                          00000000170  27818  24136  226    527    AOC            62     0  CDS            1305   0  FSP            165    0  LCI            60     0  MES            442    0  MRPP           89     0  PCP            11306  0                                                    PPD            2018   0  PPM            79     0                           PS             6989   0  UDP            868    0
020600CASTRO VERDE                  00000000050  5796   4688   69     116    AOC            12     0  CDS            102    0  FSP            50     0  LCI            16     0  MES            46     0  MRPP           12     0  PCP            2398   0                                                    PPD            328    0  PPM            34     0                           PS             1351   0  UDP            154    0
020700CUBA                          00000000040  4461   4049   43     201    AOC            20     0  CDS            106    0  FSP            46     0  LCI            13     0  MES            108    0  MRPP           21     0  PCP            2085   0                                                    PPD            306    0  PPM            34     0                           PS             1004   0  UDP            62     0
020800FERREIRA DO ALENTEJO          00000000050  8447   7726   325    240    AOC            45     0  CDS            289    0  FSP            58     0  LCI            24     0  MES            59     0  MRPP           20     0  PCP            3474   0                                                    PPD            474    0  PPM            28     0                           PS             2610   0  UDP            80     0
020900MERTOLA                       00000000090  9701   7584   122    327    AOC            37     0  CDS            391    0  FSP            104    0  LCI            33     0  MES            156    0  MRPP           26     0  PCP            3612   0                                                    PPD            472    0  PPM            53     0                           PS             2088   0  UDP            163    0
021000MOURA                         00000000080  14882  12821  298    416    AOC            45     0  CDS            656    0  FSP            151    0  LCI            43     0  MES            183    0  MRPP           44     0  PCP            5696   0                                                    PPD            808    0  PPM            66     0                           PS             4107   0  UDP            308    0
021100ODEMIRA                       00000000110  22784  18357  280    788    AOC            144    0  CDS            611    0  FSP            396    0  LCI            100    0  MES            476    0  MRPP           74     0  PCP            7144   0                                                    PPD            1710   0  PPM            156    0                           PS             6088   0  UDP            390    0
021200OURIQUE                       00000000060  6355   4995   99     171    AOC            24     0  CDS            151    0  FSP            106    0  LCI            34     0  MES            80     0  MRPP           19     0  PCP            1595   0                                                    PPD            679    0  PPM            42     0                           PS             1945   0  UDP            50     0
021300SERPA                         00000000070  15661  13540  174    400    AOC            37     0  CDS            600    0  FSP            142    0  LCI            59     0  MES            216    0  MRPP           62     0  PCP            6257   0                                                    PPD            1029   0  PPM            88     0                           PS             4257   0  UDP            219    0
021400VIDIGUEIRA                    00000000040  5783   4969   71     109    AOC            22     0  CDS            142    0  FSP            64     0  LCI            28     0  MES            111    0  MRPP           14     0  PCP            2145   0                                                    PPD            496    0  PPM            32     0                           PS             1634   0  UDP            101    0
030100AMARES                        00000000240  9610   8021   47     395    AOC            14     0  CDS            2985   0  FSP            69     0  LCI            19     0  MES            15     0  MRPP           24     0  PCP            102    0  PCPML          25     0  PDC            45     0  PPD            2396   0  PPM            72     0                           PS             1764   0  UDP            49     0
030200BARCELOS                      00000000890  55401  49184  380    2036   AOC            62     0  CDS            10580  0  FSP            367    0  LCI            53     0  MES            130    0  MRPP           209    0  PCP            1352   0  PCPML          156    0  PDC            254    0  PPD            21215  0  PPM            368    0                           PS             11466  0  UDP            556    0
030300BRAGA                         00000000610  66761  59376  481    2679   AOC            125    0  CDS            15871  0  FSP            517    0  LCI            107    0  MES            156    0  MRPP           288    0  PCP            3642   0  PCPML          94     0  PDC            252    0  PPD            11519  0  PPM            497    0                           PS             22273  0  UDP            875    0
030400CABECEIRAS DE BASTO           00000000170  12587  9116   49     506    AOC            16     0  CDS            2621   0  FSP            98     0  LCI            21     0  MES            36     0  MRPP           68     0  PCP            131    0  PCPML          50     0  PDC            59     0  PPD            3737   0  PPM            88     0                           PS             1566   0  UDP            70     0
030500CELORICO DE BASTO             00000000220  13267  10730  89     768    AOC            23     0  CDS            4367   0  FSP            148    0  LCI            35     0  MES            41     0  MRPP           49     0  PCP            176    0  PCPML          31     0  PDC            88     0  PPD            2417   0  PPM            83     0                           PS             2278   0  UDP            137    0
030600ESPOSENDE                     00000000150  15101  12805  111    561    AOC            23     0  CDS            4529   0  FSP            100    0  LCI            22     0  MES            36     0  MRPP           47     0  PCP            378    0  PCPML          29     0  PDC            94     0  PPD            4356   0  PPM            79     0                           PS             2375   0  UDP            65     0
030700FAFE                          00000000360  26582  22947  232    873    AOC            47     0  CDS            4803   0  FSP            236    0  LCI            38     0  MES            92     0  MRPP           92     0  PCP            1037   0  PCPML          108    0  PDC            147    0  PPD            6161   0  PPM            173    0                           PS             8713   0  UDP            195    0
030800GUIMARAES                     00000000730  75629  69466  464    3183   AOC            94     0  CDS            14282  0  FSP            569    0  LCI            160    0  MES            243    0  MRPP           332    0  PCP            3855   0  PCPML          177    0  PDC            301    0  PPD            13755  0  PPM            486    0                           PS             30815  0  UDP            750    0
030900POVOA DE LANHOSO              00000000290  11420  9673   75     617    AOC            14     0  CDS            2359   0  FSP            94     0  LCI            16     0  MES            27     0  MRPP           54     0  PCP            196    0  PCPML          46     0  PDC            62     0  PPD            3807   0  PPM            57     0                           PS             2173   0  UDP            76     0
031000TERRAS DE BOURO               00000000170  6310   5222   45     195    AOC            12     0  CDS            1133   0  FSP            41     0  LCI            9      0  MES            11     0  MRPP           28     0  PCP            137    0  PCPML          24     0  PDC            46     0  PPD            2378   0  PPM            64     0                           PS             1068   0  UDP            31     0
031100VIEIRA DO MINHO               00000000210  10163  7948   102    853    AOC            22     0  CDS            1626   0  FSP            87     0  LCI            24     0  MES            27     0  MRPP           65     0  PCP            243    0  PCPML          56     0  PDC            65     0  PPD            2860   0  PPM            137    0                           PS             1696   0  UDP            85     0
031200VILA NOVA DE FAMALICAO        00000000490  57010  52829  233    1689   AOC            74     0  CDS            12129  0  FSP            359    0  LCI            97     0  MES            88     0  MRPP           220    0  PCP            2272   0  PCPML          83     0  PDC            158    0  PPD            15923  0  PPM            283    0                           PS             18725  0  UDP            496    0
031300VILA VERDE                    00000000580  24590  20041  186    1034   AOC            36     0  CDS            7975   0  FSP            219    0  LCI            47     0  MES            65     0  MRPP           110    0  PCP            223    0  PCPML          53     0  PDC            140    0  PPD            6213   0  PPM            232    0                           PS             3380   0  UDP            128    0
040100ALFANDEGA DA FE               00000000200  5557   4633   31     217    AOC            24     0  CDS            1555   0  FSP            40     0  LCI            14     0  MES            20     0  MRPP           14     0  PCP            147    0  PCPML          19     0  PDC            35     0  PPD            1479   0  PPM            66     0                           PS             936    0  UDP            36     0
040200BRAGANCA                      00000000490  23152  18532  180    1115   AOC            108    0  CDS            5848   0  FSP            240    0  LCI            49     0  MES            76     0  MRPP           130    0  PCP            537    0  PCPML          99     0  PDC            155    0  PPD            5064   0  PPM            148    0                           PS             4647   0  UDP            136    0
040300CARRAZEDA DE ANSIAES          00000000190  7669   6064   25     314    AOC            28     0  CDS            2079   0  FSP            49     0  LCI            16     0  MES            28     0  MRPP           23     0  PCP            104    0  PCPML          23     0  PDC            33     0  PPD            2223   0  PPM            34     0                           PS             1041   0  UDP            44     0
040400FREIXO DE ESPADA A CINTA      00000000060  4100   3203   25     263    AOC            38     0  CDS            672    0  FSP            34     0  LCI            12     0  MES            17     0  MRPP           25     0  PCP            116    0  PCPML          19     0  PDC            22     0  PPD            1030   0  PPM            41     0                           PS             867    0  UDP            22     0
040500MACEDO DE CAVALEIROS          00000000380  13528  10893  75     521    AOC            84     0  CDS            3219   0  FSP            91     0  LCI            32     0  MES            45     0  MRPP           47     0  PCP            264    0  PCPML          66     0  PDC            128    0  PPD            3942   0  PPM            92     0                           PS             2223   0  UDP            64     0
040600MIRANDA DO DOURO              00000000160  6837   5083   124    362    AOC            48     0  CDS            1397   0  FSP            73     0  LCI            26     0  MES            33     0  MRPP           16     0  PCP            99     0  PCPML          21     0  PDC            43     0  PPD            1467   0  PPM            34     0                           PS             1237   0  UDP            103    0
040700MIRANDELA                     00000000370  17749  14172  198    912    AOC            85     0  CDS            3207   0  FSP            92     0  LCI            62     0  MES            48     0  MRPP           88     0  PCP            530    0  PCPML          79     0  PDC            84     0  PPD            5162   0  PPM            82     0                           PS             3459   0  UDP            84     0
040800MOGADOURO                     00000000280  9911   7937   78     307    AOC            48     0  CDS            1825   0  FSP            64     0  LCI            28     0  MES            18     0  MRPP           33     0  PCP            123    0  PCPML          52     0  PDC            104    0  PPD            3765   0  PPM            53     0                           PS             1389   0  UDP            50     0
040900TORRE DE MONCORVO             00000000170  9752   7319   120    553    AOC            43     0  CDS            2223   0  FSP            68     0  LCI            33     0  MES            36     0  MRPP           96     0  PCP            176    0  PCPML          44     0  PDC            39     0  PPD            1876   0  PPM            71     0                           PS             1878   0  UDP            63     0
041000VILA FLOR                     00000000190  6173   4943   68     276    AOC            34     0  CDS            1382   0  FSP            47     0  LCI            27     0  MES            42     0  MRPP           58     0  PCP            176    0  PCPML          17     0  PDC            42     0  PPD            1396   0  PPM            37     0                           PS             1287   0  UDP            54     0
041100VIMIOSO                       00000000140  5417   4167   103    364    AOC            41     0  CDS            692    0  FSP            85     0  LCI            17     0  MES            25     0  MRPP           17     0  PCP            59     0  PCPML          16     0  PDC            40     0  PPD            1798   0  PPM            27     0                           PS             862    0  UDP            21     0
041200VINHAIS                       00000000350  11148  8445   128    566    AOC            44     0  CDS            2861   0  FSP            118    0  LCI            27     0  MES            31     0  MRPP           36     0  PCP            230    0  PCPML          49     0  PDC            97     0  PPD            2425   0  PPM            59     0                           PS             1686   0  UDP            88     0
050100BELMONTE                      00000000050  4965   4060   74     369    AOC            19     0  CDS            681    0  FSP            69     0  LCI            11     0  MES            18     0  MRPP           27     0  PCP            281    0  PCPML          1      0  PDC            27     0  PPD            588    0  PPM            23     0                           PS             1824   0  UDP            48     0
050200CASTELO BRANCO                00000000250  40319  32969  379    2032   AOC            146    0  CDS            5636   0  FSP            342    0  LCI            109    0  MES            341    0  MRPP           360    0  PCP            2058   0  PCPML          152    0  PDC            238    0  PPD            7851   0  PPM            250    0                           PS             12813  0  UDP            262    0
050300COVILHA                       00000000270  41646  35619  379    2094   AOC            137    0  CDS            5241   0  FSP            627    0  LCI            125    0  MES            193    0  MRPP           368    0  PCP            4633   0  PCPML          142    0  PDC            239    0  PPD            5214   0  PPM            191    0                           PS             15474  0  UDP            562    0
050400FUNDAO                        00000000290  24685  19649  411    1350   AOC            81     0  CDS            4210   0  FSP            242    0  LCI            57     0  MES            105    0  MRPP           216    0  PCP            1106   0  PCPML          88     0  PDC            337    0  PPD            3316   0  PPM            139    0                           PS             7774   0  UDP            217    0
050500IDANHA A NOVA                 00000000170  14104  11276  301    1222   AOC            54     0  CDS            2049   0  FSP            129    0  LCI            60     0  MES            63     0  MRPP           66     0  PCP            444    0  PCPML          72     0  PDC            85     0  PPD            1814   0  PPM            73     0                           PS             4685   0  UDP            159    0
050600OLEIROS                       00000000120  8016   6054   43     346    AOC            22     0  CDS            1946   0  FSP            26     0  LCI            11     0  MES            18     0  MRPP           32     0  PCP            75     0  PCPML          11     0  PDC            55     0  PPD            2414   0  PPM            39     0                           PS             984    0  UDP            32     0
050700PENAMACOR                     00000000120  7616   6185   121    487    AOC            28     0  CDS            2257   0  FSP            61     0  LCI            26     0  MES            34     0  MRPP           55     0  PCP            136    0  PCPML          31     0  PDC            60     0  PPD            1006   0  PPM            43     0                           PS             1802   0  UDP            38     0
050800PROENCA A NOVA                00000000060  9662   7670   65     253    AOC            20     0  CDS            1943   0  FSP            45     0  LCI            21     0  MES            14     0  MRPP           55     0  PCP            111    0  PCPML          23     0  PDC            63     0  PPD            3169   0  PPM            66     0                           PS             1760   0  UDP            62     0
050900SERTA                         00000000140  15938  11819  133    865    AOC            48     0  CDS            2441   0  FSP            98     0  LCI            39     0  MES            30     0  MRPP           76     0  PCP            229    0  PCPML          51     0  PDC            104    0  PPD            5008   0  PPM            97     0                           PS             2510   0  UDP            90     0
051000VILA DE REI                   00000000030  4006   3260   21     214    AOC            8      0  CDS            1497   0  FSP            13     0  LCI            6      0  MES            6      0  MRPP           18     0  PCP            15     0  PCPML          5      0  PDC            52     0  PPD            931    0  PPM            20     0                           PS             428    0  UDP            26     0
051100VILA VELHA DE RODAO           00000000040  4632   3647   49     253    AOC            16     0  CDS            274    0  FSP            56     0  LCI            20     0  MES            22     0  MRPP           54     0  PCP            280    0  PCPML          9      0  PDC            15     0  PPD            774    0  PPM            18     0                           PS             1775   0  UDP            32     0
060100ARGANIL                       00000000180  11417  8613   118    693    AOC            47     0  CDS            1472   0  FSP            70     0  LCI            58     0  MES            45     0  MRPP           39     0  PCP            179    0  PCPML          14     0  PDC            86     0  PPD            2888   0  PPM            50     0  PRT            66     0  PS             2736   0  UDP            52     0
060200CANTANHEDE                    00000000140  26513  20610  173    861    AOC            89     0  CDS            3662   0  FSP            95     0  LCI            97     0  MES            49     0  MRPP           53     0  PCP            404    0  PCPML          36     0  PDC            110    0  PPD            8808   0  PPM            125    0  PRT            74     0  PS             5879   0  UDP            95     0
060300COIMBRA                       00000000310  95741  78754  860    3041   AOC            294    0  CDS            10556  0  FSP            463    0  LCI            283    0  MES            367    0  MRPP           496    0  PCP            9560   0  PCPML          141    0  PDC            404    0  PPD            15463  0  PPM            462    0  PRT            337    0  PS             34765  0  UDP            1262   0
060400CONDEIXA A NOVA               00000000100  9229   7571   135    641    AOC            40     0  CDS            459    0  FSP            50     0  LCI            50     0  MES            35     0  MRPP           89     0  PCP            470    0  PCPML          21     0  PDC            45     0  PPD            2106   0  PPM            46     0  PRT            46     0  PS             3189   0  UDP            149    0
060500FIGUEIRA DA FOZ               00000000130  43106  32671  372    1677   AOC            126    0  CDS            2868   0  FSP            274    0  LCI            104    0  MES            211    0  MRPP           295    0  PCP            3674   0  PCPML          76     0  PDC            184    0  PPD            5658   0  PPM            136    0  PRT            269    0  PS             16446  0  UDP            301    0
060600GOIS                          00000000050  5186   3419   47     340    AOC            15     0  CDS            513    0  FSP            34     0  LCI            30     0  MES            25     0  MRPP           12     0  PCP            80     0  PCPML          6      0  PDC            40     0  PPD            999    0  PPM            34     0  PRT            40     0  PS             1173   0  UDP            31     0
060700LOUSA                         00000000050  9209   7159   122    395    AOC            33     0  CDS            1108   0  FSP            65     0  LCI            52     0  MES            27     0  MRPP           38     0  PCP            231    0  PCPML          22     0  PDC            92     0  PPD            1587   0  PPM            37     0  PRT            77     0  PS             3179   0  UDP            94     0
060800MIRA                          00000000010  8139   6671   55     381    AOC            35     0  CDS            768    0  FSP            42     0  LCI            23     0  MES            33     0  MRPP           24     0  PCP            126    0  PCPML          7      0  PDC            26     0  PPD            2783   0  PPM            34     0  PRT            16     0  PS             2280   0  UDP            38     0
060900MIRANDA DO CORVO              00000000050  8377   6278   66     460    AOC            30     0  CDS            467    0  FSP            46     0  LCI            33     0  MES            24     0  MRPP           21     0  PCP            170    0  PCPML          18     0  PDC            63     0  PPD            2272   0  PPM            24     0  PRT            44     0  PS             2470   0  UDP            70     0
061000MONTEMOR O VELHO              00000000130  20498  14188  226    1109   AOC            55     0  CDS            1531   0  FSP            142    0  LCI            69     0  MES            61     0  MRPP           81     0  PCP            840    0  PCPML          36     0  PDC            131    0  PPD            2723   0  PPM            77     0  PRT            119    0  PS             6798   0  UDP            190    0
061100OLIVEIRA DO HOSPITAL          00000000200  16125  13321  133    707    AOC            78     0  CDS            2413   0  FSP            97     0  LCI            83     0  MES            39     0  MRPP           60     0  PCP            212    0  PCPML          25     0  PDC            128    0  PPD            4883   0  PPM            74     0  PRT            104    0  PS             4198   0  UDP            87     0
061200PAMPILHOSA DA SERRA           00000000100  6217   4445   83     292    AOC            40     0  CDS            630    0  FSP            39     0  LCI            43     0  MES            18     0  MRPP           21     0  PCP            68     0  PCPML          8      0  PDC            47     0  PPD            2138   0  PPM            35     0  PRT            34     0  PS             920    0  UDP            29     0
061300PENACOVA                      00000000110  12008  8758   77     588    AOC            48     0  CDS            1021   0  FSP            57     0  LCI            51     0  MES            35     0  MRPP           23     0  PCP            401    0  PCPML          18     0  PDC            65     0  PPD            3330   0  PPM            50     0  PRT            85     0  PS             2849   0  UDP            60     0
061400PENELA                        00000000060  6145   4480   77     299    AOC            23     0  CDS            258    0  FSP            27     0  LCI            26     0  MES            16     0  MRPP           10     0  PCP            60     0  PCPML          10     0  PDC            40     0  PPD            2164   0  PPM            25     0  PRT            30     0  PS             1380   0  UDP            35     0
061500SOURE                         00000000120  16606  12789  212    1142   AOC            68     0  CDS            760    0  FSP            106    0  LCI            70     0  MES            67     0  MRPP           110    0  PCP            585    0  PCPML          28     0  PDC            111    0  PPD            2656   0  PPM            73     0  PRT            130    0  PS             6474   0  UDP            197    0
061600TABUA                         00000000150  9581   7343   129    512    AOC            31     0  CDS            1210   0  FSP            79     0  LCI            55     0  MES            24     0  MRPP           49     0  PCP            161    0  PCPML          12     0  PDC            62     0  PPD            2622   0  PPM            52     0  PRT            80     0  PS             2218   0  UDP            47     0
061700VILA NOVA DE POIARES          00000000040  4591   3145   39     99     AOC            14     0  CDS            308    0  FSP            32     0  LCI            23     0  MES            15     0  MRPP           14     0  PCP            184    0  PCPML          8      0  PDC            27     0  PPD            1037   0  PPM            25     0  PRT            33     0  PS             1259   0  UDP            28     0
070100ALANDROAL                     00000000050  6463   5733   83     141    AOC            31     0  CDS            366    0  FSP            69     0  LCI            12     0  MES            25     0  MRPP           12     0  PCP            3130   0                                                    PPD            367    0  PPM            45     0                           PS             1329   0  UDP            123    0
070200ARRAIOLOS                     00000000060  7053   6441   60     139    AOC            28     0  CDS            504    0  FSP            84     0  LCI            18     0  MES            48     0  MRPP           12     0  PCP            3425   0                                                    PPD            381    0  PPM            52     0                           PS             1589   0  UDP            101    0
070300BORBA                         00000000040  6320   5730   62     140    AOC            20     0  CDS            409    0  FSP            75     0  LCI            10     0  MES            40     0  MRPP           35     0  PCP            2089   0                                                    PPD            502    0  PPM            24     0                           PS             1898   0  UDP            426    0
070400ESTREMOZ                      00000000130  14594  12638  139    383    AOC            48     0  CDS            1496   0  FSP            161    0  LCI            58     0  MES            132    0  MRPP           49     0  PCP            3768   0                                                    PPD            1399   0  PPM            128    0                           PS             4568   0  UDP            309    0
070500EVORA                         00000000140  37185  32597  258    631    AOC            88     0  CDS            3142   0  FSP            361    0  LCI            80     0  MES            251    0  MRPP           109    0  PCP            12863  0                                                    PPD            3317   0  PPM            177    0                           PS             10341  0  UDP            979    0
070600MONTEMOR O NOVO               00000000060  15743  14354  109    211    AOC            31     0  CDS            675    0  FSP            168    0  LCI            24     0  MES            63     0  MRPP           21     0  PCP            8243   0                                                    PPD            1002   0  PPM            78     0                           PS             3411   0  UDP            318    0
070700MORA                          00000000040  5805   5292   57     128    AOC            19     0  CDS            400    0  FSP            65     0  LCI            16     0  MES            30     0  MRPP           14     0  PCP            2429   0                                                    PPD            485    0  PPM            40     0                           PS             1479   0  UDP            130    0
070800MOURAO                        00000000030  2669   2328   53     67     AOC            11     0  CDS            253    0  FSP            39     0  LCI            17     0  MES            10     0  MRPP           13     0  PCP            673    0                                                    PPD            258    0  PPM            15     0                           PS             885    0  UDP            34     0
070900PORTEL                        00000000080  6293   5624   54     156    AOC            18     0  CDS            220    0  FSP            51     0  LCI            22     0  MES            30     0  MRPP           11     0  PCP            3024   0                                                    PPD            338    0  PPM            38     0                           PS             1563   0  UDP            99     0
071000REDONDO                       00000000020  6537   5666   53     200    AOC            35     0  CDS            487    0  FSP            94     0  LCI            18     0  MES            46     0  MRPP           11     0  PCP            2432   0                                                    PPD            505    0  PPM            64     0                           PS             1564   0  UDP            157    0
071100REGUENGOS DE MONSARAZ         00000000040  8811   7839   108    265    AOC            26     0  CDS            534    0  FSP            115    0  LCI            36     0  MES            23     0  MRPP           27     0  PCP            2615   0                                                    PPD            1102   0  PPM            72     0                           PS             2782   0  UDP            134    0
071200VENDAS NOVAS                  00000000010  8767   7504   49     169    AOC            23     0  CDS            509    0  FSP            77     0  LCI            12     0  MES            28     0  MRPP           16     0  PCP            3521   0                                                    PPD            575    0  PPM            36     0                           PS             2375   0  UDP            114    0
071300VIANA DO ALENTEJO             00000000020  4856   4250   55     105    AOC            13     0  CDS            345    0  FSP            74     0  LCI            18     0  MES            36     0  MRPP           11     0  PCP            2043   0                                                    PPD            260    0  PPM            49     0                           PS             1102   0  UDP            139    0
071400VILA VICOSA                   00000000050  6536   5695   67     135    AOC            19     0  CDS            373    0  FSP            69     0  LCI            21     0  MES            33     0  MRPP           76     0  PCP            2123   0                                                    PPD            668    0  PPM            29     0                           PS             1990   0  UDP            92     0
080100ALBUFEIRA                     00000000030  12374  9694   62     553    AOC            47     0  CDS            824    0  FSP            143    0  LCI            35     0  MES            51     0  MRPP           69     0  PCP            1007   0  PCPML          35     0  PDC            61     0  PPD            2399   0  PPM            41     0                           PS             4238   0  UDP            129    0
080200ALCOUTIM                      00000000050  4683   3409   80     334    AOC            16     0  CDS            107    0  FSP            96     0  LCI            29     0  MES            25     0  MRPP           31     0  PCP            450    0  PCPML          22     0  PDC            38     0  PPD            601    0  PPM            31     0                           PS             1481   0  UDP            68     0
080300ALJEZUR                       00000000030  4509   3587   55     223    AOC            40     0  CDS            113    0  FSP            187    0  LCI            21     0  MES            57     0  MRPP           21     0  PCP            857    0  PCPML          36     0  PDC            36     0  PPD            507    0  PPM            26     0                           PS             1350   0  UDP            58     0
080400CASTRO MARIM                  00000000030  5690   4393   80     323    AOC            15     0  CDS            179    0  FSP            114    0  LCI            30     0  MES            25     0  MRPP           28     0  PCP            326    0  PCPML          23     0  PDC            38     0  PPD            781    0  PPM            16     0                           PS             2280   0  UDP            135    0
080500FARO                          00000000050  32133  26153  827    314    AOC            74     0  CDS            1928   0  FSP            292    0  LCI            50     0  MES            185    0  MRPP           171    0  PCP            4529   0  PCPML          93     0  PDC            168    0  PPD            5552   0  PPM            113    0                           PS             11110  0  UDP            747    0
080600LAGOA                         00000000040  10404  9134   144    455    AOC            47     0  CDS            550    0  FSP            236    0  LCI            35     0  MES            73     0  MRPP           47     0  PCP            1486   0  PCPML          40     0  PDC            76     0  PPD            1644   0  PPM            59     0                           PS             4070   0  UDP            172    0
080700LAGOS                         00000000060  14405  12135  118    505    AOC            56     0  CDS            643    0  FSP            328    0  LCI            48     0  MES            156    0  MRPP           108    0  PCP            2515   0  PCPML          70     0  PDC            96     0  PPD            1440   0  PPM            55     0                           PS             5562   0  UDP            435    0
080800LOULE                         00000000090  32232  25084  282    1323   AOC            205    0  CDS            1935   0  FSP            441    0  LCI            132    0  MES            155    0  MRPP           194    0  PCP            2065   0  PCPML          84     0  PDC            265    0  PPD            7405   0  PPM            151    0                           PS             9921   0  UDP            526    0
080900MONCHIQUE                     00000000030  8162   6524   129    481    AOC            38     0  CDS            312    0  FSP            149    0  LCI            39     0  MES            43     0  MRPP           33     0  PCP            723    0  PCPML          24     0  PDC            96     0  PPD            1816   0  PPM            47     0                           PS             2518   0  UDP            76     0
081000OLHAO                         00000000050  23582  18976  183    764    AOC            104    0  CDS            1187   0  FSP            267    0  LCI            53     0  MES            131    0  MRPP           723    0  PCP            1543   0  PCPML          32     0  PDC            127    0  PPD            2836   0  PPM            79     0                           PS             10620  0  UDP            327    0
081100PORTIMAO                      00000000030  24347  21079  214    711    AOC            64     0  CDS            1630   0  FSP            509    0  LCI            49     0  MES            117    0  MRPP           150    0  PCP            3715   0  PCPML          83     0  PDC            92     0  PPD            3188   0  PPM            73     0                           PS             9927   0  UDP            557    0
081200SAO BRAS DE ALPORTEL          00000000010  5707   4361   46     204    AOC            26     0  CDS            305    0  FSP            61     0  LCI            20     0  MES            20     0  MRPP           21     0  PCP            532    0  PCPML          17     0  PDC            29     0  PPD            935    0  PPM            16     0                           PS             2079   0  UDP            50     0
081300SILVES                        00000000070  24160  19741  216    801    AOC            139    0  CDS            1086   0  FSP            411    0  LCI            106    0  MES            151    0  MRPP           118    0  PCP            4349   0  PCPML          122    0  PDC            191    0  PPD            3173   0  PPM            130    0                           PS             8157   0  UDP            591    0
081400TAVIRA                        00000000070  19752  13961  173    731    AOC            93     0  CDS            1284   0  FSP            315    0  LCI            67     0  MES            114    0  MRPP           122    0  PCP            845    0  PCPML          54     0  PDC            124    0  PPD            3091   0  PPM            81     0                           PS             6333   0  UDP            534    0
081500VILA DO BISPO                 00000000050  4292   3468   67     246    AOC            23     0  CDS            228    0  FSP            146    0  LCI            13     0  MES            34     0  MRPP           39     0  PCP            601    0  PCPML          33     0  PDC            20     0  PPD            399    0  PPM            11     0                           PS             1468   0  UDP            140    0
081600VILA REAL DE SANTO ANTONIO    00000000020  10918  9337   65     407    AOC            25     0  CDS            488    0  FSP            139    0  LCI            13     0  MES            53     0  MRPP           78     0  PCP            2124   0  PCPML          40     0  PDC            46     0  PPD            1138   0  PPM            37     0                           PS             4296   0  UDP            388    0
090100AGUIAR DA BEIRA               00000000130  4999   4016   14     88                              CDS            1885   0  FSP            36     0  LCI            9      0  MES            24     0  MRPP           19     0  PCP            16     0                           PDC            58     0  PPD            1419   0  PPM            25     0                           PS             389    0  UDP            34     0
090200ALMEIDA                       00000000290  7309   6278   75     317                             CDS            2386   0  FSP            106    0  LCI            14     0  MES            51     0  MRPP           44     0  PCP            89     0                           PDC            103    0  PPD            1783   0  PPM            75     0                           PS             1173   0  UDP            62     0
090300CELORICO DA BEIRA             00000000210  7442   5829   75     537                             CDS            2334   0  FSP            77     0  LCI            20     0  MES            65     0  MRPP           35     0  PCP            120    0                           PDC            91     0  PPD            1153   0  PPM            55     0                           PS             1211   0  UDP            56     0
090400FIGUEIRA DE CASTELO RODRIGO   00000000170  6774   5466   75     305                             CDS            1507   0  FSP            114    0  LCI            27     0  MES            74     0  MRPP           40     0  PCP            133    0                           PDC            114    0  PPD            1399   0  PPM            60     0                           PS             1542   0  UDP            76     0
090500FORNOS DE ALGODRES            00000000160  4953   3926   32     207                             CDS            1738   0  FSP            44     0  LCI            16     0  MES            36     0  MRPP           13     0  PCP            73     0                           PDC            62     0  PPD            626    0  PPM            30     0                           PS             1013   0  UDP            36     0
090600GOUVEIA                       00000000220  14964  12353  154    768                             CDS            2541   0  FSP            160    0  LCI            47     0  MES            121    0  MRPP           92     0  PCP            652    0                           PDC            95     0  PPD            3093   0  PPM            78     0                           PS             4374   0  UDP            178    0
090700GUARDA                        00000000540  28321  24024  279    1471                            CDS            7718   0  FSP            418    0  LCI            95     0  MES            242    0  MRPP           357    0  PCP            854    0                           PDC            295    0  PPD            4477   0  PPM            239    0                           PS             7284   0  UDP            295    0
090800MANTEIGAS                     00000000030  3172   2711   32     183                             CDS            809    0  FSP            44     0  LCI            12     0  MES            21     0  MRPP           13     0  PCP            122    0                           PDC            30     0  PPD            457    0  PPM            12     0                           PS             956    0  UDP            20     0
090900MEDA                          00000000160  6269   5031   44     214                             CDS            1968   0  FSP            88     0  LCI            21     0  MES            49     0  MRPP           36     0  PCP            101    0                           PDC            61     0  PPD            1486   0  PPM            59     0                           PS             861    0  UDP            43     0
091000PINHEL                        00000000270  10187  7957   123    467                             CDS            2658   0  FSP            103    0  LCI            27     0  MES            59     0  MRPP           43     0  PCP            212    0                           PDC            101    0  PPD            2497   0  PPM            86     0                           PS             1502   0  UDP            79     0
091100SABUGAL                       00000000400  14720  12410  183    836                             CDS            4199   0  FSP            173    0  LCI            47     0  MES            145    0  MRPP           84     0  PCP            161    0                           PDC            251    0  PPD            3861   0  PPM            149    0                           PS             2163   0  UDP            158    0
091200SEIA                          00000000280  21712  18061  125    988                             CDS            4350   0  FSP            193    0  LCI            55     0  MES            162    0  MRPP           105    0  PCP            546    0                           PDC            183    0  PPD            5549   0  PPM            124    0                           PS             5526   0  UDP            155    0
091300TRANCOSO                      00000000290  9442   7514   108    536                             CDS            2929   0  FSP            96     0  LCI            31     0  MES            85     0  MRPP           60     0  PCP            210    0                           PDC            148    0  PPD            1722   0  PPM            67     0                           PS             1440   0  UDP            82     0
091400VILA NOVA DE FOZ COA          00000000170  7872   6264   67     474                             CDS            2079   0  FSP            63     0  LCI            31     0  MES            65     0  MRPP           67     0  PCP            260    0                           PDC            75     0  PPD            1741   0  PPM            64     0                           PS             1188   0  UDP            90     0
100100ALCOBACA                      00000000160  35277  29769  219    1582   AOC            61     0  CDS            5145   0  FSP            311    0  LCI            120    0  MES            139    0  MRPP           93     0  PCP            1923   0  PCPML          47     0  PDC            180    0  PPD            8778   0  PPM            278    0                           PS             10690  0  UDP            203    0
100200ALVAIAZERE                    00000000070  8199   6270   59     350    AOC            12     0  CDS            1595   0  FSP            56     0  LCI            32     0  MES            14     0  MRPP           22     0  PCP            74     0  PCPML          22     0  PDC            34     0  PPD            3048   0  PPM            86     0                           PS             837    0  UDP            29     0
100300ANSIAO                        00000000080  10933  8952   85     296    AOC            15     0  CDS            1513   0  FSP            55     0  LCI            28     0  MES            8      0  MRPP           17     0  PCP            100    0  PCPML          8      0  PDC            63     0  PPD            5014   0  PPM            90     0                           PS             1628   0  UDP            32     0
100400BATALHA                       00000000030  8325   7180   71     350    AOC            13     0  CDS            2113   0  FSP            39     0  LCI            23     0  MES            15     0  MRPP           17     0  PCP            102    0  PCPML          5      0  PDC            48     0  PPD            2922   0  PPM            105    0                           PS             1327   0  UDP            30     0
100500BOMBARRAL                     00000000040  10092  7882   104    519    AOC            13     0  CDS            1701   0  FSP            74     0  LCI            28     0  MES            35     0  MRPP           87     0  PCP            648    0  PCPML          15     0  PDC            73     0  PPD            1984   0  PPM            40     0                           PS             2506   0  UDP            55     0
100600CALDAS DA RAINHA              00000000150  28715  22584  232    1133   AOC            55     0  CDS            3760   0  FSP            224    0  LCI            73     0  MES            125    0  MRPP           106    0  PCP            1570   0  PCPML          49     0  PDC            131    0  PPD            7400   0  PPM            170    0                           PS             7310   0  UDP            246    0
100700CASTANHEIRA DE PERA           00000000020  3796   3058   63     92     AOC            6      0  CDS            117    0  FSP            27     0  LCI            7      0  MES            11     0  MRPP           8      0  PCP            81     0  PCPML          2      0  PDC            7      0  PPD            939    0  PPM            20     0                           PS             1648   0  UDP            30     0
100800FIGUEIRO DOS VINHOS           00000000040  6797   5132   57     447    AOC            17     0  CDS            822    0  FSP            31     0  LCI            24     0  MES            10     0  MRPP           15     0  PCP            69     0  PCPML          8      0  PDC            24     0  PPD            2496   0  PPM            85     0                           PS             1009   0  UDP            18     0
100900LEIRIA                        00000000250  58336  48424  301    2344   AOC            105    0  CDS            14971  0  FSP            356    0  LCI            162    0  MES            169    0  MRPP           312    0  PCP            1939   0  PCPML          57     0  PDC            326    0  PPD            14238  0  PPM            288    0                           PS             12468  0  UDP            388    0
101000MARINHA GRANDE                00000000020  19401  16515  166    591    AOC            46     0  CDS            846    0  FSP            133    0  LCI            31     0  MES            113    0  MRPP           207    0  PCP            5786   0  PCPML          65     0  PDC            81     0  PPD            1567   0  PPM            40     0                           PS             6619   0  UDP            224    0
101100NAZARE                        00000000030  10283  8582   80     590    AOC            9      0  CDS            1092   0  FSP            78     0  LCI            16     0  MES            13     0  MRPP           47     0  PCP            597    0  PCPML          9      0  PDC            26     0  PPD            1289   0  PPM            22     0                           PS             4378   0  UDP            336    0
101200OBIDOS                        00000000070  7564   5797   67     237    AOC            19     0  CDS            909    0  FSP            106    0  LCI            41     0  MES            36     0  MRPP           21     0  PCP            449    0  PCPML          6      0  PDC            47     0  PPD            1491   0  PPM            54     0                           PS             2268   0  UDP            46     0
101300PEDROGAO GRANDE               00000000030  4767   3253   45     217    AOC            9      0  CDS            504    0  FSP            26     0  LCI            11     0  MES            6      0  MRPP           7      0  PCP            40     0  PCPML          4      0  PDC            35     0  PPD            1569   0  PPM            37     0                           PS             737    0  UDP            6      0
101400PENICHE                       00000000050  15785  13022  97     517    AOC            41     0  CDS            1537   0  FSP            183    0  LCI            50     0  MES            148    0  MRPP           79     0  PCP            1876   0  PCPML          46     0  PDC            68     0  PPD            2103   0  PPM            63     0                           PS             5999   0  UDP            215    0
101500POMBAL                        00000000140  34764  23764  301    1570   AOC            72     0  CDS            3573   0  FSP            295    0  LCI            97     0  MES            100    0  MRPP           109    0  PCP            463    0  PCPML          45     0  PDC            210    0  PPD            10127  0  PPM            248    0                           PS             6386   0  UDP            168    0
101600PORTO DE MOS                  00000000130  14656  12510  65     548    AOC            25     0  CDS            3014   0  FSP            91     0  LCI            69     0  MES            61     0  MRPP           21     0  PCP            510    0  PCPML          9      0  PDC            98     0  PPD            4385   0  PPM            97     0                           PS             3414   0  UDP            103    0
110100ALENQUER                      00000000140  26637  21436  115    1130   AOC            44     0  CDS            1283   0  FSP            241    0  LCI            106    0  MES            111    0  MRPP           128    0  PCP            5112   0  PCPML          110    0  PDC            82     0  PPD            3253   0  PPM            84     0  PRT            50     0  PS             9319   0  UDP            268    0
110200ARRUDA DOS VINHOS             00000000040  6396   5089   40     320    AOC            15     0  CDS            276    0  FSP            63     0  LCI            23     0  MES            20     0  MRPP           62     0  PCP            1097   0  PCPML          24     0  PDC            27     0  PPD            710    0  PPM            22     0  PRT            12     0  PS             2322   0  UDP            56     0
110300AZAMBUJA                      00000000080  13680  11426  78     846    AOC            26     0  CDS            637    0  FSP            209    0  LCI            52     0  MES            73     0  MRPP           160    0  PCP            2482   0  PCPML          107    0  PDC            44     0  PPD            1273   0  PPM            48     0  PRT            28     0  PS             5036   0  UDP            327    0
110400CADAVAL                       00000000100  10672  8671   55     522    AOC            39     0  CDS            1307   0  FSP            126    0  LCI            61     0  MES            40     0  MRPP           40     0  PCP            428    0  PCPML          46     0  PDC            52     0  PPD            2319   0  PPM            60     0  PRT            27     0  PS             3468   0  UDP            81     0
110500CASCAIS                       00000000060  90158  75120  395    1946   AOC            215    0  CDS            13506  0  FSP            499    0  LCI            204    0  MES            630    0  MRPP           695    0  PCP            14238  0  PCPML          310    0  PDC            262    0  PPD            14040  0  PPM            357    0  PRT            82     0  PS             25965  0  UDP            1776   0
110600LISBOA                        00000000530  672765 557071 2839   14478  AOC            1201   0  CDS            92250  0  FSP            3152   0  LCI            1108   0  MES            3718   0  MRPP           7107   0  PCP            106897 0  PCPML          2094   0  PDC            2097   0  PPD            95751  0  PPM            2522   0  PRT            572    0  PS             205659 0  UDP            15626  0
110700LOURES                        00000000170  157825 133472 836    3449   AOC            272    0  CDS            9669   0  FSP            935    0  LCI            285    0  MES            985    0  MRPP           2011   0  PCP            39028  0  PCPML          795    0  PDC            371    0  PPD            15754  0  PPM            356    0  PRT            163    0  PS             55380  0  UDP            3183   0
110800LOURINHA                      00000000080  13797  11328  70     889    AOC            52     0  CDS            2862   0  FSP            95     0  LCI            44     0  MES            45     0  MRPP           39     0  PCP            274    0  PCPML          35     0  PDC            86     0  PPD            3269   0  PPM            46     0  PRT            25     0  PS             3403   0  UDP            94     0
110900MAFRA                         00000000150  31186  24405  292    1756   AOC            81     0  CDS            2069   0  FSP            338    0  LCI            133    0  MES            140    0  MRPP           95     0  PCP            2398   0  PCPML          92     0  PDC            154    0  PPD            5898   0  PPM            174    0  PRT            104    0  PS             10302  0  UDP            379    0
111000OEIRAS                        00000000050  190591 159122 795    3108   AOC            303    0  CDS            16899  0  FSP            815    0  LCI            290    0  MES            1026   0  MRPP           1870   0  PCP            42330  0  PCPML          751    0  PDC            417    0  PPD            22982  0  PPM            556    0  PRT            202    0  PS             61860  0  UDP            4918   0
111100SINTRA                        00000000130  129940 110647 881    3383   AOC            302    0  CDS            10951  0  FSP            971    0  LCI            291    0  MES            664    0  MRPP           1170   0  PCP            25948  0  PCPML          503    0  PDC            403    0  PPD            15673  0  PPM            421    0  PRT            158    0  PS             45386  0  UDP            3542   0
111200SOBRAL DE MONTE AGRACO        00000000030  5705   4555   40     309    AOC            7      0  CDS            195    0  FSP            48     0  LCI            19     0  MES            35     0  MRPP           38     0  PCP            1323   0  PCPML          4      0  PDC            9      0  PPD            596    0  PPM            11     0  PRT            11     0  PS             1853   0  UDP            57     0
111300TORRES VEDRAS                 00000000180  44492  36566  238    1515   AOC            105    0  CDS            2827   0  FSP            418    0  LCI            152    0  MES            180    0  MRPP           130    0  PCP            5033   0  PCPML          197    0  PDC            199    0  PPD            11021  0  PPM            174    0  PRT            109    0  PS             13772  0  UDP            496    0
111400VILA FRANCA DE XIRA           00000000090  50178  43247  278    1095   AOC            177    0  CDS            1806   0  FSP            315    0  LCI            91     0  MES            299    0  MRPP           923    0  PCP            16459  0  PCPML          244    0  PDC            98     0  PPD            3529   0  PPM            94     0  PRT            45     0  PS             16971  0  UDP            823    0
111500AMADORA                       500       0  0      0      0      0
120100ALTER DO CHAO                 00000000040  4122   3670   57     185    AOC            23     0  CDS            412    0  FSP            24     0  LCI            38     0  MES            27     0  MRPP           18     0  PCP            975    0  PCPML          12     0  PDC            33     0  PPD            459    0  PPM            15     0                           PS             1357   0  UDP            35     0
120200ARRONCHES                     00000000030  3462   2975   30     129    AOC            21     0  CDS            557    0  FSP            40     0  LCI            17     0  MES            27     0  MRPP           1      0  PCP            619    0  PCPML          6      0  PDC            23     0  PPD            242    0  PPM            24     0                           PS             1219   0  UDP            20     0
120300AVIS                          00000000080  4634   4316   27     112    AOC            21     0  CDS            174    0  FSP            16     0  LCI            31     0  MES            20     0  MRPP           4      0  PCP            2080   0  PCPML          9      0  PDC            11     0  PPD            348    0  PPM            17     0                           PS             1417   0  UDP            29     0
120400CAMPO MAIOR                   00000000030  6129   5426   56     139    AOC            15     0  CDS            290    0  FSP            27     0  LCI            33     0  MES            27     0  MRPP           4      0  PCP            1990   0  PCPML          7      0  PDC            25     0  PPD            425    0  PPM            13     0                           PS             2353   0  UDP            22     0
120500CASTELO DE VIDE               00000000040  3626   3083   50     239    AOC            23     0  CDS            533    0  FSP            40     0  LCI            27     0  MES            31     0  MRPP           16     0  PCP            324    0  PCPML          10     0  PDC            34     0  PPD            164    0  PPM            24     0                           PS             1520   0  UDP            48     0
120600CRATO                         00000000060  4522   3923   65     250    AOC            24     0  CDS            508    0  FSP            36     0  LCI            51     0  MES            27     0  MRPP           19     0  PCP            728    0  PCPML          14     0  PDC            34     0  PPD            186    0  PPM            22     0                           PS             1922   0  UDP            37     0
120700ELVAS                         00000000110  18236  15626  197    686    AOC            67     0  CDS            2393   0  FSP            182    0  LCI            111    0  MES            107    0  MRPP           45     0  PCP            2728   0  PCPML          37     0  PDC            71     0  PPD            1379   0  PPM            54     0                           PS             7430   0  UDP            139    0
120800FRONTEIRA                     00000000030  3567   3186   56     136    AOC            38     0  CDS            458    0  FSP            29     0  LCI            24     0  MES            40     0  MRPP           7      0  PCP            677    0  PCPML          15     0  PDC            16     0  PPD            321    0  PPM            17     0                           PS             1314   0  UDP            38     0
120900GAVIAO                        00000000050  5705   4503   70     333    AOC            32     0  CDS            296    0  FSP            53     0  LCI            38     0  MES            47     0  MRPP           34     0  PCP            794    0  PCPML          19     0  PDC            33     0  PPD            534    0  PPM            27     0                           PS             2162   0  UDP            31     0
121000MARVAO                        00000000040  4536   3981   85     304    AOC            28     0  CDS            997    0  FSP            41     0  LCI            21     0  MES            47     0  MRPP           6      0  PCP            236    0  PCPML          18     0  PDC            44     0  PPD            346    0  PPM            24     0                           PS             1758   0  UDP            26     0
121100MONFORTE                      00000000040  3198   2905   46     172    AOC            22     0  CDS            528    0  FSP            34     0  LCI            29     0  MES            29     0  MRPP           10     0  PCP            878    0  PCPML          7      0  PDC            18     0  PPD            223    0  PPM            18     0                           PS             858    0  UDP            33     0
121200NISA                          00000000100  9360   8124   198    582    AOC            62     0  CDS            1325   0  FSP            118    0  LCI            88     0  MES            76     0  MRPP           50     0  PCP            1119   0  PCPML          37     0  PDC            67     0  PPD            701    0  PPM            61     0                           PS             3540   0  UDP            100    0
121300PONTE DE SOR                  00000000030  13948  11670  120    320    AOC            83     0  CDS            793    0  FSP            127    0  LCI            103    0  MES            112    0  MRPP           43     0  PCP            4186   0  PCPML          60     0  PDC            57     0  PPD            1594   0  PPM            56     0                           PS             3880   0  UDP            136    0
121400PORTALEGRE                    00000000100  19802  17679  233    441    AOC            99     0  CDS            3319   0  FSP            184    0  LCI            84     0  MES            271    0  MRPP           84     0  PCP            2073   0  PCPML          41     0  PDC            138    0  PPD            2173   0  PPM            81     0                           PS             8294   0  UDP            164    0
121500SOUSEL                        00000000040  5533   4976   59     197    AOC            40     0  CDS            792    0  FSP            53     0  LCI            39     0  MES            46     0  MRPP           8      0  PCP            1728   0  PCPML          14     0  PDC            26     0  PPD            584    0  PPM            27     0                           PS             1271   0  UDP            92     0
130100AMARANTE                      00000000400  29042  23625  280    1572   AOC            55     0  CDS            3119   0  FSP            230    0  LCI            176    0  MES            98     0  MRPP           61     0  PCP            812    0  PCPML          50     0  PDC            192    0  PPD            8794   0  PPM            150    0  PRT            141    0  PS             7679   0  UDP            216    0
130200BAIAO                         00000000200  15576  11048  192    1070   AOC            34     0  CDS            1305   0  FSP            150    0  LCI            59     0  MES            49     0  MRPP           14     0  PCP            240    0  PCPML          27     0  PDC            87     0  PPD            3249   0  PPM            36     0  PRT            85     0  PS             4391   0  UDP            60     0
130300FELGUEIRAS                    00000000330  24890  21622  209    1404   AOC            44     0  CDS            4452   0  FSP            213    0  LCI            76     0  MES            77     0  MRPP           33     0  PCP            728    0  PCPML          0      0  PDC            168    0  PPD            6822   0  PPM            80     0  PRT            93     0  PS             7097   0  UDP            126    0
130400GONDOMAR                      00000000110  76220  67912  284    1998   AOC            105    0  CDS            7981   0  FSP            280    0  LCI            204    0  MES            173    0  MRPP           198    0  PCP            8610   0  PCPML          88     0  PDC            219    0  PPD            15399  0  PPM            191    0  PRT            90     0  PS             31225  0  UDP            867    0
130500LOUSADA                       00000000260  19106  16679  133    646    AOC            49     0  CDS            2898   0  FSP            160    0  LCI            53     0  MES            57     0  MRPP           43     0  PCP            508    0  PCPML          46     0  PDC            117    0  PPD            5615   0  PPM            77     0  PRT            78     0  PS             6108   0  UDP            91     0
130600MAIA                          00000000160  46556  41307  213    1665   AOC            43     0  CDS            5874   0  FSP            178    0  LCI            120    0  MES            98     0  MRPP           64     0  PCP            3616   0  PCPML          81     0  PDC            105    0  PPD            9150   0  PPM            122    0  PRT            43     0  PS             19337  0  UDP            598    0
130700MARCO DE CANAVESES            00000000310  24931  20834  230    1019   AOC            65     0  CDS            3356   0  FSP            255    0  LCI            70     0  MES            62     0  MRPP           43     0  PCP            606    0  PCPML          52     0  PDC            187    0  PPD            8540   0  PPM            118    0  PRT            128    0  PS             5882   0  UDP            221    0
130800MATOSINHOS                    00000000100  83969  75504  315    2959   AOC            84     0  CDS            8846   0  FSP            180    0  LCI            144    0  MES            172    0  MRPP           137    0  PCP            6874   0  PCPML          127    0  PDC            124    0  PPD            16127  0  PPM            194    0  PRT            43     0  PS             37483  0  UDP            1695   0
130900PACOS DE FERREIRA             00000000160  20407  18060  101    834    AOC            29     0  CDS            4397   0  FSP            117    0  LCI            55     0  MES            45     0  MRPP           21     0  PCP            815    0  PCPML          35     0  PDC            108    0  PPD            5500   0  PPM            91     0  PRT            48     0  PS             5775   0  UDP            89     0
131000PAREDES                       00000000240  33011  28954  142    1426   AOC            54     0  CDS            7479   0  FSP            190    0  LCI            93     0  MES            67     0  MRPP           52     0  PCP            900    0  PCPML          42     0  PDC            182    0  PPD            9297   0  PPM            153    0  PRT            56     0  PS             8591   0  UDP            230    0
131100PENAFIEL                      00000000370  33345  29662  265    1612   AOC            59     0  CDS            6094   0  FSP            215    0  LCI            91     0  MES            89     0  MRPP           195    0  PCP            1002   0  PCPML          23     0  PDC            218    0  PPD            10652  0  PPM            106    0  PRT            122    0  PS             8724   0  UDP            195    0
131200PORTO                         00000000150  239395 211171 615    4577   AOC            203    0  CDS            34583  0  FSP            455    0  LCI            454    0  MES            591    0  MRPP           604    0  PCP            25418  0  PCPML          205    0  PDC            436    0  PPD            54892  0  PPM            879    0  PRT            141    0  PS             81879  0  UDP            5239   0
131300POVOA DE VARZIM               00000000120  29407  25522  118    1274   AOC            23     0  CDS            6454   0  FSP            131    0  LCI            51     0  MES            38     0  MRPP           39     0  PCP            1317   0  PCPML          24     0  PDC            86     0  PPD            8493   0  PPM            58     0  PRT            38     0  PS             7287   0  UDP            91     0
131400SANTO TIRSO                   00000000320  53295  48386  276    2425   AOC            86     0  CDS            8465   0  FSP            301    0  LCI            167    0  MES            109    0  MRPP           76     0  PCP            2037   0  PCPML          52     0  PDC            237    0  PPD            12596  0  PPM            292    0  PRT            119    0  PS             20666  0  UDP            482    0
131500VALONGO                       00000000050  33149  29809  93     1000   AOC            29     0  CDS            4176   0  FSP            104    0  LCI            78     0  MES            91     0  MRPP           77     0  PCP            2360   0  PCPML          62     0  PDC            104    0  PPD            6974   0  PPM            87     0  PRT            25     0  PS             14081  0  UDP            468    0
131600VILA DO CONDE                 00000000300  35893  32075  189    1272   AOC            57     0  CDS            5572   0  FSP            188    0  LCI            119    0  MES            67     0  MRPP           47     0  PCP            2194   0  PCPML          66     0  PDC            158    0  PPD            9103   0  PPM            71     0  PRT            55     0  PS             12756  0  UDP            161    0
131700VILA NOVA DE GAIA             00000000240  140269 125492 514    4489   AOC            150    0  CDS            14862  0  FSP            459    0  LCI            382    0  MES            379    0  MRPP           245    0  PCP            11227  0  PCPML          141    0  PDC            277    0  PPD            31978  0  PPM            335    0  PRT            133    0  PS             58165  0  UDP            1756   0
140100ABRANTES                      00000000150  36064  28668  323    1517   AOC            160    0  CDS            2872   0  FSP            426    0  LCI            151    0  MES            171    0  MRPP           240    0  PCP            3868   0  PCPML          136    0  PDC            204    0  PPD            4019   0  PPM            151    0                           PS             13631  0  UDP            799    0
140200ALCANENA                      00000000100  10014  8667   59     321    AOC            25     0  CDS            1485   0  FSP            94     0  LCI            34     0  MES            40     0  MRPP           31     0  PCP            1259   0  PCPML          39     0  PDC            44     0  PPD            1812   0  PPM            45     0                           PS             3290   0  UDP            89     0
140300ALMEIRIM                      00000000040  14690  13115  315    488    AOC            38     0  CDS            1067   0  FSP            124    0  LCI            42     0  MES            73     0  MRPP           66     0  PCP            2970   0  PCPML          46     0  PDC            34     0  PPD            1908   0  PPM            59     0                           PS             5768   0  UDP            117    0
140400ALPIARCA                      00000000010  6235   5410   49     182    AOC            15     0  CDS            181    0  FSP            49     0  LCI            13     0  MES            59     0  MRPP           24     0  PCP            3236   0  PCPML          18     0  PDC            14     0  PPD            376    0  PPM            15     0                           PS             1066   0  UDP            113    0
140500BENAVENTE                     00000000030  10682  9403   58     395    AOC            27     0  CDS            427    0  FSP            88     0  LCI            33     0  MES            49     0  MRPP           62     0  PCP            3625   0  PCPML          23     0  PDC            18     0  PPD            978    0  PPM            29     0                           PS             3498   0  UDP            93     0
140600CARTAXO                       00000000070  15524  13330  140    698    AOC            96     0  CDS            909    0  FSP            162    0  LCI            56     0  MES            68     0  MRPP           150    0  PCP            2516   0  PCPML          13     0  PDC            42     0  PPD            1689   0  PPM            112    0                           PS             6489   0  UDP            190    0
140700CHAMUSCA                      00000000050  10033  8676   161    358    AOC            78     0  CDS            890    0  FSP            133    0  LCI            64     0  MES            59     0  MRPP           61     0  PCP            2176   0  PCPML          59     0  PDC            38     0  PPD            855    0  PPM            39     0                           PS             3590   0  UDP            115    0
140800CONSTANCIA                    00000000030  4922   2864   57     151    AOC            15     0  CDS            213    0  FSP            34     0  LCI            12     0  MES            20     0  MRPP           30     0  PCP            314    0  PCPML          11     0  PDC            15     0  PPD            321    0  PPM            7      0                           PS             1592   0  UDP            72     0
140900CORUCHE                       00000000030  19296  16630  143    498    AOC            63     0  CDS            1093   0  FSP            193    0  LCI            51     0  MES            100    0  MRPP           85     0  PCP            7352   0  PCPML          62     0  PDC            52     0  PPD            1812   0  PPM            117    0                           PS             4887   0  UDP            122    0
141000ENTRONCAMENTO                 00000000010  8101   6623   62     201    AOC            25     0  CDS            573    0  FSP            61     0  LCI            13     0  MES            58     0  MRPP           117    0  PCP            956    0  PCPML          20     0  PDC            27     0  PPD            855    0  PPM            22     0                           PS             3439   0  UDP            194    0
141100FERREIRA DO ZEZERE            00000000090  8883   6694   82     599    AOC            48     0  CDS            1513   0  FSP            36     0  LCI            53     0  MES            30     0  MRPP           20     0  PCP            113    0  PCPML          23     0  PDC            111    0  PPD            2320   0  PPM            43     0                           PS             1643   0  UDP            60     0
141200GOLEGA                        00000000020  4188   3797   34     202    AOC            13     0  CDS            360    0  FSP            43     0  LCI            22     0  MES            17     0  MRPP           103    0  PCP            1055   0  PCPML          27     0  PDC            25     0  PPD            405    0  PPM            11     0                           PS             1449   0  UDP            31     0
141300MACAO                         00000000080  10278  8283   96     488    AOC            60     0  CDS            1940   0  FSP            95     0  LCI            40     0  MES            36     0  MRPP           46     0  PCP            316    0  PCPML          41     0  PDC            85     0  PPD            2328   0  PPM            66     0                           PS             2457   0  UDP            189    0
141400RIO MAIOR                     00000000090  13876  11783  77     265    AOC            58     0  CDS            2026   0  FSP            66     0  LCI            103    0  MES            34     0  MRPP           47     0  PCP            379    0  PCPML          36     0  PDC            77     0  PPD            4804   0  PPM            177    0                           PS             3561   0  UDP            73     0
141500SALVATERRA DE MAGOS           00000000040  12387  11083  437    808    AOC            36     0  CDS            278    0  FSP            119    0  LCI            44     0  MES            42     0  MRPP           87     0  PCP            2296   0  PCPML          6      0  PDC            17     0  PPD            1196   0  PPM            32     0                           PS             5589   0  UDP            96     0
141600SANTAREM                      00000000270  47346  39539  341    1545   AOC            112    0  CDS            4503   0  FSP            431    0  LCI            176    0  MES            217    0  MRPP           268    0  PCP            5803   0  PCPML          147    0  PDC            188    0  PPD            7975   0  PPM            243    0                           PS             16957  0  UDP            633    0
141700SARDOAL                       00000000040  3730   3125   41     171    AOC            15     0  CDS            847    0  FSP            44     0  LCI            18     0  MES            18     0  MRPP           19     0  PCP            162    0  PCPML          9      0  PDC            44     0  PPD            595    0  PPM            14     0                           PS             1098   0  UDP            30     0
141800TOMAR                         00000000150  32627  26010  380    1441   AOC            119    0  CDS            4405   0  FSP            366    0  LCI            164    0  MES            161    0  MRPP           216    0  PCP            1532   0  PCPML          104    0  PDC            286    0  PPD            6122   0  PPM            185    0                           PS             9875   0  UDP            654    0
141900TORRES NOVAS                  00000000160  26921  21800  234    1188   AOC            69     0  CDS            2614   0  FSP            340    0  LCI            98     0  MES            177    0  MRPP           145    0  PCP            3011   0  PCPML          63     0  PDC            152    0  PPD            4167   0  PPM            124    0                           PS             8905   0  UDP            513    0
142000VILA NOVA DA BARQUINHA        00000000040  8553   5363   65     261    AOC            32     0  CDS            564    0  FSP            67     0  LCI            22     0  MES            46     0  MRPP           61     0  PCP            681    0  PCPML          12     0  PDC            32     0  PPD            702    0  PPM            21     0                           PS             2688   0  UDP            109    0
142100OUREM                         00000000150  27228  21894  115    829    AOC            76     0  CDS            8918   0  FSP            70     0  LCI            102    0  MES            51     0  MRPP           55     0  PCP            202    0  PCPML          62     0  PDC            177    0  PPD            7922   0  PPM            141    0                           PS             2935   0  UDP            239    0
150100ALCACER DO SAL                00000000040  12546  10966  106    428    AOC            63     0  CDS            350    0  FSP            143    0  LCI            35     0  MES            90     0  MRPP           35     0  PCP            5129   0  PCPML          139    0  PDC            27     0  PPD            706    0  PPM            45     0  PRT            54     0  PS             3261   0  UDP            355    0
150200ALCOCHETE                     00000000020  7470   6752   203    207    AOC            23     0  CDS            198    0  FSP            55     0  LCI            7      0  MES            48     0  MRPP           105    0  PCP            3070   0  PCPML          57     0  PDC            11     0  PPD            455    0  PPM            19     0  PRT            20     0  PS             2134   0  UDP            140    0
150300ALMADA                        00000000050  102145 84746  518    2251   AOC            152    0  CDS            5402   0  FSP            702    0  LCI            117    0  MES            534    0  MRPP           850    0  PCP            32593  0  PCPML          639    0  PDC            226    0  PPD            7596   0  PPM            174    0  PRT            86     0  PS             30152  0  UDP            2754   0
150400BARREIRO                      00000000040  58135  50182  310    952    AOC            80     0  CDS            1338   0  FSP            307    0  LCI            56     0  MES            288    0  MRPP           407    0  PCP            28730  0  PCPML          375    0  PDC            108    0  PPD            2699   0  PPM            77     0  PRT            38     0  PS             12928  0  UDP            1489   0
150500GRANDOLA                      00000000040  12827  11119  81     339    AOC            56     0  CDS            273    0  FSP            134    0  LCI            21     0  MES            102    0  MRPP           43     0  PCP            5664   0  PCPML          92     0  PDC            22     0  PPD            1337   0  PPM            44     0  PRT            22     0  PS             2653   0  UDP            236    0
150600MOITA                         00000000030  30257  26751  158    566    AOC            49     0  CDS            656    0  FSP            159    0  LCI            26     0  MES            113    0  MRPP           305    0  PCP            16544  0  PCPML          232    0  PDC            49     0  PPD            1101   0  PPM            27     0  PRT            26     0  PS             5115   0  UDP            1625   0
150700MONTIJO                       00000000040  26536  21876  133    652    AOC            61     0  CDS            1299   0  FSP            235    0  LCI            37     0  MES            134    0  MRPP           410    0  PCP            8466   0  PCPML          208    0  PDC            64     0  PPD            2014   0  PPM            55     0  PRT            44     0  PS             7559   0  UDP            505    0
150800PALMELA                       00000000040  25266  20847  155    950    AOC            53     0  CDS            654    0  FSP            230    0  LCI            59     0  MES            112    0  MRPP           143    0  PCP            7638   0  PCPML          181    0  PDC            45     0  PPD            2097   0  PPM            104    0  PRT            41     0  PS             7994   0  UDP            391    0
150900SANTIAGO DO CACEM             00000000100  19840  17297  144    716    AOC            86     0  CDS            475    0  FSP            164    0  LCI            51     0  MES            76     0  MRPP           77     0  PCP            7720   0  PCPML          172    0  PDC            40     0  PPD            1815   0  PPM            77     0  PRT            32     0  PS             5439   0  UDP            213    0
151000SEIXAL                        00000000040  40984  35069  204    710    AOC            84     0  CDS            1463   0  FSP            381    0  LCI            45     0  MES            170    0  MRPP           390    0  PCP            16746  0  PCPML          312    0  PDC            77     0  PPD            2487   0  PPM            62     0  PRT            56     0  PS             11089  0  UDP            793    0
151100SESIMBRA                      00000000020  14440  12382  93     339    AOC            46     0  CDS            756    0  FSP            194    0  LCI            44     0  MES            203    0  MRPP           118    0  PCP            4180   0  PCPML          160    0  PDC            61     0  PPD            1078   0  PPM            62     0  PRT            40     0  PS             4776   0  UDP            232    0
151200SETUBAL                       00000000060  63986  54695  359    1749   AOC            121    0  CDS            2697   0  FSP            706    0  LCI            132    0  MES            332    0  MRPP           288    0  PCP            19479  0  PCPML          349    0  PDC            137    0  PPD            6297   0  PPM            207    0  PRT            94     0  PS             20540  0  UDP            1208   0
151300SINES                         00000000010  7213   6103   77     166    AOC            35     0  CDS            173    0  FSP            57     0  LCI            12     0  MES            36     0  MRPP           21     0  PCP            3120   0  PCPML          62     0  PDC            18     0  PPD            460    0  PPM            24     0  PRT            12     0  PS             1706   0  UDP            124    0
160100ARCOS DE VALDEVEZ             00000000510  20825  14374  246    1011   AOC            33     0  CDS            2081   0  FSP            107    0  LCI            124    0  MES            71     0  MRPP           34     0  PCP            467    0  PCPML          35     0  PDC            85     0  PPD            6697   0  PPM            114    0                           PS             3211   0  UDP            58     0
160200CAMINHA                       00000000200  10557  8753   145    439    AOC            24     0  CDS            1302   0  FSP            96     0  LCI            26     0  MES            74     0  MRPP           59     0  PCP            689    0  PCPML          29     0  PDC            75     0  PPD            2047   0  PPM            43     0                           PS             3578   0  UDP            127    0
160300MELGACO                       00000000180  9140   6584   81     435    AOC            26     0  CDS            1229   0  FSP            85     0  LCI            31     0  MES            40     0  MRPP           12     0  PCP            188    0  PCPML          17     0  PDC            73     0  PPD            2161   0  PPM            36     0                           PS             2121   0  UDP            49     0
160400MONCAO                        00000000320  16158  11862  158    628    AOC            34     0  CDS            3594   0  FSP            103    0  LCI            43     0  MES            68     0  MRPP           20     0  PCP            292    0  PCPML          29     0  PDC            246    0  PPD            3380   0  PPM            96     0                           PS             3115   0  UDP            56     0
160500PAREDES DE COURA              00000000210  7811   5205   77     261    AOC            20     0  CDS            980    0  FSP            84     0  LCI            24     0  MES            48     0  MRPP           43     0  PCP            133    0  PCPML          20     0  PDC            52     0  PPD            1953   0  PPM            78     0                           PS             1403   0  UDP            29     0
160600PONTE DA BARCA                00000000250  8822   7001   19     272    AOC            19     0  CDS            1589   0  FSP            49     0  LCI            27     0  MES            30     0  MRPP           37     0  PCP            113    0  PCPML          10     0  PDC            48     0  PPD            3140   0  PPM            51     0                           PS             1575   0  UDP            22     0
160700PONTE DE LIMA                 00000000510  25965  22109  268    1021   AOC            57     0  CDS            8577   0  FSP            130    0  LCI            96     0  MES            111    0  MRPP           32     0  PCP            793    0  PCPML          37     0  PDC            171    0  PPD            7706   0  PPM            223    0                           PS             2805   0  UDP            82     0
160800VALENCA                       00000000160  9646   7601   82     408    AOC            20     0  CDS            1451   0  FSP            73     0  LCI            32     0  MES            41     0  MRPP           10     0  PCP            220    0  PCPML          8      0  PDC            43     0  PPD            2640   0  PPM            67     0                           PS             2472   0  UDP            34     0
