010101AGADAO                        00000000000  498    396    2      10     AOC            0      0  CDS            187    0  FSP            2      0  LCI            2      0  MES            5      0  MRPP           1      0  PCP            1      0                           PDC            4      0  PPD            124    0  PPM            1      0                           PS             49     0  UDP            8      0
010102AGUADA DE BAIXO               00000000000  981    830    0      44     AOC            1      0  CDS            210    0  FSP            4      0  LCI            1      0  MES            4      0  MRPP           1      0  PCP            8      0                           PDC            2      0  PPD            325    0  PPM            5      0                           PS             224    0  UDP            1      0
010103AGUADA DE CIMA                00000000000  2162   1787   7      58     AOC            9      0  CDS            384    0  FSP            13     0  LCI            3      0  MES            5      0  MRPP           3      0  PCP            35     0                           PDC            9      0  PPD            713    0  PPM            5      0                           PS             532    0  UDP            11     0
010104AGUEDA                        00000000000  7831   6333   32     187    AOC            10     0  CDS            1291   0  FSP            41     0  LCI            11     0  MES            23     0  MRPP           16     0  PCP            543    0                           PDC            31     0  PPD            1455   0  PPM            15     0                           PS             2633   0  UDP            45     0
010105BARRO                         00000000000  965    777    7      47     AOC            1      0  CDS            114    0  FSP            3      0  LCI            1      0  MES            2      0  MRPP           0      0  PCP            3      0                           PDC            6      0  PPD            291    0  PPM            2      0                           PS             296    0  UDP            4      0
010106BELAZAIMA DO CHAO             00000000000  415    353    3      7      AOC            1      0  CDS            68     0  FSP            2      0  LCI            1      0  MES            4      0  MRPP           4      0  PCP            2      0                           PDC            0      0  PPD            119    0  PPM            2      0                           PS             134    0  UDP            6      0
010107CASTANHEIRA DO VOUGA          00000000000  470    470    9      14     AOC            1      0  CDS            198    0  FSP            0      0  LCI            1      0  MES            2      0  MRPP           1      0  PCP            8      0                           PDC            1      0  PPD            171    0  PPM            2      0                           PS             60     0  UDP            2      0
010108ESPINHEL                      00000000000  1538   1250   4      42     AOC            3      0  CDS            312    0  FSP            4      0  LCI            2      0  MES            3      0  MRPP           12     0  PCP            38     0                           PDC            5      0  PPD            293    0  PPM            1      0                           PS             527    0  UDP            4      0
010109FERMENTELOS                   00000000000  1615   1422   3      58     AOC            2      0  CDS            571    0  FSP            0      0  LCI            0      0  MES            2      0  MRPP           1      0  PCP            11     0                           PDC            7      0  PPD            660    0  PPM            4      0                           PS             95     0  UDP            8      0
010110LAMAS DO VOUGA                00000000000  515    436    9      12     AOC            1      0  CDS            102    0  FSP            4      0  LCI            1      0  MES            2      0  MRPP           0      0  PCP            4      0                           PDC            0      0  PPD            87     0  PPM            1      0                           PS             209    0  UDP            4      0
010111MACIEIRA DE ALCOBA            00000000000  172    136    2      12     AOC            0      0  CDS            50     0  FSP            1      0  LCI            0      0  MES            1      0  MRPP           2      0  PCP            15     0                           PDC            2      0  PPD            26     0  PPM            2      0                           PS             18     0  UDP            5      0
010112MACINHATA DO VOUGA            00000000000  2246   1842   12     49     AOC            9      0  CDS            572    0  FSP            10     0  LCI            7      0  MES            10     0  MRPP           7      0  PCP            44     0                           PDC            6      0  PPD            524    0  PPM            9      0                           PS             568    0  UDP            15     0
010113OIS DA RIBEIRA                00000000000  497    446    4      14     AOC            0      0  CDS            169    0  FSP            0      0  LCI            1      0  MES            0      0  MRPP           2      0  PCP            4      0                           PDC            1      0  PPD            121    0  PPM            0      0                           PS             129    0  UDP            1      0
010114PRESTIMO                      00000000000  731    565    15     34     AOC            2      0  CDS            285    0  FSP            2      0  LCI            2      0  MES            0      0  MRPP           3      0  PCP            17     0                           PDC            4      0  PPD            98     0  PPM            0      0                           PS             98     0  UDP            5      0
010115RECARDAES                     00000000000  1330   1123   15     8      AOC            4      0  CDS            204    0  FSP            10     0  LCI            5      0  MES            4      0  MRPP           2      0  PCP            54     0                           PDC            3      0  PPD            289    0  PPM            17     0                           PS             500    0  UDP            8      0
010116SEGADAES                      00000000000  475    408    1      38     AOC            0      0  CDS            118    0  FSP            0      0  LCI            2      0  MES            1      0  MRPP           1      0  PCP            6      0                           PDC            2      0  PPD            116    0  PPM            1      0                           PS             119    0  UDP            3      0
010117TRAVASSO                      00000000000  855    740    2      41     AOC            0      0  CDS            249    0  FSP            2      0  LCI            1      0  MES            0      0  MRPP           3      0  PCP            5      0                           PDC            6      0  PPD            202    0  PPM            3      0                           PS             221    0  UDP            5      0
010118TROFA                         00000000000  1683   1428   11     22     AOC            2      0  CDS            259    0  FSP            3      0  LCI            4      0  MES            9      0  MRPP           2      0  PCP            56     0                           PDC            9      0  PPD            431    0  PPM            3      0                           PS             613    0  UDP            4      0
010119VALONGO DO VOUGA              00000000000  2901   2361   14     78     AOC            5      0  CDS            643    0  FSP            9      0  LCI            5      0  MES            3      0  MRPP           5      0  PCP            102    0                           PDC            8      0  PPD            671    0  PPM            13     0                           PS             795    0  UDP            10     0
010120BORRALHA                      500       0  0      0      0      0
010201ALBERGARIA-A-VELHA            00000000000  3162   2519   6      93     AOC            5      0  CDS            963    0  FSP            8      0  LCI            5      0  MES            39     0  MRPP           7      0  PCP            61     0                           PDC            7      0  PPD            723    0  PPM            5      0                           PS             587    0  UDP            10     0
010202ALQUERUBIM                    00000000000  1450   1085   5      51     AOC            4      0  CDS            301    0  FSP            3      0  LCI            3      0  MES            7      0  MRPP           3      0  PCP            17     0                           PDC            10     0  PPD            391    0  PPM            9      0                           PS             264    0  UDP            17     0
010203ANGEJA                        00000000000  1471   1153   13     27     AOC            3      0  CDS            332    0  FSP            6      0  LCI            6      0  MES            1      0  MRPP           5      0  PCP            41     0                           PDC            9      0  PPD            400    0  PPM            3      0                           PS             295    0  UDP            12     0
010204BRANCA                        00000000000  2894   2394   6      25     AOC            5      0  CDS            594    0  FSP            3      0  LCI            7      0  MES            19     0  MRPP           9      0  PCP            37     0                           PDC            21     0  PPD            1162   0  PPM            13     0                           PS             476    0  UDP            17     0
010205FROSSOS                       00000000000  542    441    3      22     AOC            3      0  CDS            118    0  FSP            3      0  LCI            1      0  MES            1      0  MRPP           5      0  PCP            4      0                           PDC            3      0  PPD            188    0  PPM            0      0                           PS             88     0  UDP            2      0
010206RIBEIRA DE FRAGUAS            00000000000  1176   952    2      24     AOC            4      0  CDS            390    0  FSP            4      0  LCI            2      0  MES            2      0  MRPP           7      0  PCP            13     0                           PDC            8      0  PPD            331    0  PPM            4      0                           PS             155    0  UDP            6      0
010207SAO JOAO DE LOURE             00000000000  1424   1124   6      37     AOC            6      0  CDS            327    0  FSP            4      0  LCI            0      0  MES            3      0  MRPP           1      0  PCP            23     0                           PDC            7      0  PPD            502    0  PPM            5      0                           PS             193    0  UDP            10     0
010208VALMAIOR                      00000000000  1204   968    8      25     AOC            1      0  CDS            282    0  FSP            7      0  LCI            3      0  MES            15     0  MRPP           0      0  PCP            30     0                           PDC            4      0  PPD            299    0  PPM            1      0                           PS             287    0  UDP            6      0
010301AMOREIRA DA GANDARA           00000000000  930    815    3      45     AOC            1      0  CDS            290    0  FSP            1      0  LCI            2      0  MES            2      0  MRPP           4      0  PCP            4      0                           PDC            4      0  PPD            343    0  PPM            6      0                           PS             109    0  UDP            1      0
010302ANCAS                         00000000000  534    474    5      27     AOC            4      0  CDS            114    0  FSP            1      0  LCI            0      0  MES            2      0  MRPP           1      0  PCP            3      0                           PDC            2      0  PPD            229    0  PPM            5      0                           PS             81     0  UDP            0      0
010303ARCOS                         00000000000  3018   2564   20     84     AOC            1      0  CDS            445    0  FSP            8      0  LCI            3      0  MES            12     0  MRPP           5      0  PCP            141    0                           PDC            10     0  PPD            784    0  PPM            9      0                           PS             1039   0  UDP            3      0
010304AVELAS DE CAMINHO             00000000000  714    630    6      38     AOC            0      0  CDS            149    0  FSP            4      0  LCI            2      0  MES            1      0  MRPP           1      0  PCP            2      0                           PDC            2      0  PPD            195    0  PPM            3      0                           PS             226    0  UDP            1      0
010305AVELAS DE CIMA                00000000000  1570   1290   8      48     AOC            4      0  CDS            420    0  FSP            3      0  LCI            2      0  MES            5      0  MRPP           8      0  PCP            5      0                           PDC            12     0  PPD            610    0  PPM            1      0                           PS             157    0  UDP            7      0
010306MOGOFORES                     00000000000  662    570    0      21     AOC            0      0  CDS            105    0  FSP            2      0  LCI            1      0  MES            5      0  MRPP           4      0  PCP            9      0                           PDC            5      0  PPD            213    0  PPM            3      0                           PS             201    0  UDP            1      0
010307MOITA                         00000000000  1883   1417   16     74     AOC            3      0  CDS            240    0  FSP            8      0  LCI            4      0  MES            5      0  MRPP           4      0  PCP            25     0                           PDC            6      0  PPD            676    0  PPM            11     0                           PS             338    0  UDP            7      0
010308OIS DO BAIRRO                 00000000000  279    240    3      0      AOC            1      0  CDS            66     0  FSP            0      0  LCI            0      0  MES            0      0  MRPP           1      0  PCP            0      0                           PDC            2      0  PPD            105    0  PPM            0      0                           PS             60     0  UDP            2      0
010309SANGALHOS                     00000000000  2653   2304   11     81     AOC            10     0  CDS            548    0  FSP            8      0  LCI            7      0  MES            2      0  MRPP           10     0  PCP            50     0                           PDC            13     0  PPD            1051   0  PPM            9      0                           PS             495    0  UDP            9      0
010310SAO LOURENCO DO BAIRRO        00000000000  2442   2009   13     62     AOC            7      0  CDS            503    0  FSP            5      0  LCI            5      0  MES            6      0  MRPP           5      0  PCP            18     0                           PDC            9      0  PPD            1000   0  PPM            7      0                           PS             365    0  UDP            4      0
010311TAMENGOS                      00000000000  1877   1517   5      17     AOC            10     0  CDS            283    0  FSP            2      0  LCI            3      0  MES            9      0  MRPP           5      0  PCP            30     0                           PDC            3      0  PPD            673    0  PPM            11     0                           PS             456    0  UDP            10     0
010312VILA NOVA DE MONSARROS        00000000000  1280   963    15     66     AOC            2      0  CDS            168    0  FSP            3      0  LCI            0      0  MES            1      0  MRPP           5      0  PCP            10     0                           PDC            5      0  PPD            409    0  PPM            2      0                           PS             274    0  UDP            3      0
010313VILARINHO DO BAIRRO           00000000000  2627   2041   11     71     AOC            4      0  CDS            647    0  FSP            2      0  LCI            4      0  MES            4      0  MRPP           7      0  PCP            31     0                           PDC            10     0  PPD            937    0  PPM            11     0                           PS             292    0  UDP            10     0
010314PAREDES DO BAIRRO             500       0  0      0      0      0
010315AGUIM                         500       0  0      0      0      0
010401ALBERGARIA DA SERRA           00000000000  164    124    4      11     AOC            0      0  CDS            27     0  FSP            3      0  LCI            0      0  MES            3      0  MRPP           0      0  PCP            0      0                           PDC            1      0  PPD            15     0  PPM            3      0                           PS             48     0  UDP            9      0
010402ALVARENGA                     00000000000  1298   1060   16     74     AOC            4      0  CDS            397    0  FSP            9      0  LCI            3      0  MES            4      0  MRPP           12     0  PCP            13     0                           PDC            13     0  PPD            370    0  PPM            4      0                           PS             134    0  UDP            7      0
010403AROUCA                        00000000000  1353   1165   7      50     AOC            4      0  CDS            373    0  FSP            5      0  LCI            4      0  MES            4      0  MRPP           3      0  PCP            17     0                           PDC            10     0  PPD            380    0  PPM            5      0                           PS             279    0  UDP            24     0
010404BURGO                         00000000000  1146   974    3      53     AOC            4      0  CDS            362    0  FSP            3      0  LCI            2      0  MES            4      0  MRPP           3      0  PCP            9      0                           PDC            6      0  PPD            319    0  PPM            3      0                           PS             184    0  UDP            19     0
010405CABREIROS                     00000000000  209    146    4      16     AOC            3      0  CDS            16     0  FSP            2      0  LCI            0      0  MES            0      0  MRPP           1      0  PCP            3      0                           PDC            1      0  PPD            62     0  PPM            1      0                           PS             29     0  UDP            8      0
010406CANELAS                       00000000000  467    356    7      20     AOC            3      0  CDS            81     0  FSP            5      0  LCI            1      0  MES            4      0  MRPP           2      0  PCP            11     0                           PDC            1      0  PPD            159    0  PPM            4      0                           PS             55     0  UDP            3      0
010407CHAVE                         00000000000  953    809    2      48     AOC            4      0  CDS            444    0  FSP            1      0  LCI            2      0  MES            3      0  MRPP           4      0  PCP            4      0                           PDC            3      0  PPD            179    0  PPM            2      0                           PS             92     0  UDP            21     0
010408COVELO DE PAIVO               00000000000  192    124    1      11     AOC            2      0  CDS            26     0  FSP            1      0  LCI            1      0  MES            0      0  MRPP           1      0  PCP            0      0                           PDC            4      0  PPD            65     0  PPM            0      0                           PS             12     0  UDP            0      0
010409ESCARIZ                       00000000000  1273   1068   6      23     AOC            1      0  CDS            456    0  FSP            1      0  LCI            2      0  MES            4      0  MRPP           3      0  PCP            13     0                           PDC            2      0  PPD            433    0  PPM            3      0                           PS             111    0  UDP            10     0
010410ESPIUNCA                      00000000000  375    312    3      17     AOC            3      0  CDS            109    0  FSP            1      0  LCI            1      0  MES            1      0  MRPP           2      0  PCP            2      0                           PDC            1      0  PPD            147    0  PPM            2      0                           PS             22     0  UDP            1      0
010411FERMEDO                       00000000000  909    742    5      21     AOC            6      0  CDS            239    0  FSP            2      0  LCI            1      0  MES            3      0  MRPP           5      0  PCP            19     0                           PDC            5      0  PPD            290    0  PPM            6      0                           PS             132    0  UDP            8      0
010412JANARDE                       00000000000  188    141    1      10     AOC            0      0  CDS            61     0  FSP            0      0  LCI            0      0  MES            0      0  MRPP           1      0  PCP            1      0                           PDC            2      0  PPD            52     0  PPM            1      0                           PS             10     0  UDP            2      0
010413MANSORES                      00000000000  767    686    1      24     AOC            2      0  CDS            313    0  FSP            0      0  LCI            1      0  MES            1      0  MRPP           3      0  PCP            3      0                           PDC            4      0  PPD            282    0  PPM            1      0                           PS             43     0  UDP            8      0
010414MOLDES                        00000000000  914    725    3      41     AOC            3      0  CDS            217    0  FSP            1      0  LCI            1      0  MES            4      0  MRPP           1      0  PCP            1      0                           PDC            8      0  PPD            314    0  PPM            3      0                           PS             118    0  UDP            10     0
010415ROSSAS                        00000000000  970    793    3      48     AOC            4      0  CDS            294    0  FSP            0      0  LCI            1      0  MES            5      0  MRPP           0      0  PCP            20     0                           PDC            2      0  PPD            337    0  PPM            1      0                           PS             63     0  UDP            15     0
010416SANTA EULALIA                 00000000000  1445   1225   2      51     AOC            6      0  CDS            346    0  FSP            0      0  LCI            1      0  MES            4      0  MRPP           17     0  PCP            7      0                           PDC            7      0  PPD            557    0  PPM            5      0                           PS             214    0  UDP            8      0
010417SAO MIGUEL DO MATO            00000000000  602    476    2      9      AOC            0      0  CDS            215    0  FSP            1      0  LCI            1      0  MES            4      0  MRPP           1      0  PCP            5      0                           PDC            1      0  PPD            199    0  PPM            2      0                           PS             35     0  UDP            1      0
010418TROPECO                       00000000000  591    591    7      25     AOC            2      0  CDS            179    0  FSP            2      0  LCI            3      0  MES            7      0  MRPP           7      0  PCP            5      0                           PDC            2      0  PPD            249    0  PPM            4      0                           PS             90     0  UDP            9      0
010419URRO                          00000000000  778    589    1      29     AOC            2      0  CDS            188    0  FSP            1      0  LCI            1      0  MES            1      0  MRPP           3      0  PCP            11     0                           PDC            0      0  PPD            268    0  PPM            0      0                           PS             68     0  UDP            16     0
010420VARZEA                        00000000000  277    252    3      3      AOC            0      0  CDS            66     0  FSP            0      0  LCI            1      0  MES            1      0  MRPP           0      0  PCP            3      0                           PDC            0      0  PPD            149    0  PPM            0      0                           PS             23     0  UDP            3      0
010501ARADAS                        00000000000  4640   3956   19     125    AOC            22     0  CDS            1266   0  FSP            10     0  LCI            11     0  MES            12     0  MRPP           34     0  PCP            76     0                           PDC            28     0  PPD            1258   0  PPM            17     0                           PS             1060   0  UDP            18     0
010502CACIA                         00000000000  3542   2936   7      94     AOC            13     0  CDS            651    0  FSP            7      0  LCI            7      0  MES            7      0  MRPP           16     0  PCP            113    0                           PDC            15     0  PPD            1003   0  PPM            16     0                           PS             925    0  UDP            62     0
010503EIROL                         00000000000  463    399    2      23     AOC            0      0  CDS            156    0  FSP            0      0  LCI            2      0  MES            0      0  MRPP           4      0  PCP            6      0                           PDC            0      0  PPD            143    0  PPM            1      0                           PS             57     0  UDP            5      0
010504EIXO                          00000000000  2082   1696   12     84     AOC            4      0  CDS            576    0  FSP            4      0  LCI            3      0  MES            3      0  MRPP           8      0  PCP            35     0                           PDC            14     0  PPD            476    0  PPM            5      0                           PS             459    0  UDP            13     0
010505ESGUEIRA                      00000000000  6369   5345   35     185    AOC            18     0  CDS            1368   0  FSP            22     0  LCI            13     0  MES            10     0  MRPP           27     0  PCP            221    0                           PDC            27     0  PPD            1521   0  PPM            17     0                           PS             1829   0  UDP            52     0
010506GLORIA                        00000000000  6743   5666   37     99     AOC            9      0  CDS            1761   0  FSP            13     0  LCI            11     0  MES            29     0  MRPP           74     0  PCP            413    0                           PDC            54     0  PPD            1274   0  PPM            22     0                           PS             1814   0  UDP            56     0
010507NARIZ                         00000000000  712    606    6      18     AOC            0      0  CDS            269    0  FSP            2      0  LCI            0      0  MES            1      0  MRPP           4      0  PCP            7      0                           PDC            5      0  PPD            257    0  PPM            4      0                           PS             28     0  UDP            5      0
010508OLIVEIRINHA                   00000000000  2542   2358   8      104    AOC            8      0  CDS            635    0  FSP            2      0  LCI            1      0  MES            10     0  MRPP           11     0  PCP            21     0                           PDC            10     0  PPD            1227   0  PPM            9      0                           PS             299    0  UDP            13     0
010509REQUEIXO                      00000000000  1835   1528   7      68     AOC            5      0  CDS            518    0  FSP            3      0  LCI            0      0  MES            5      0  MRPP           5      0  PCP            16     0                           PDC            4      0  PPD            777    0  PPM            8      0                           PS             96     0  UDP            16     0
010510SAO BERNARDO                  00000000000  1859   1565   13     91     AOC            3      0  CDS            511    0  FSP            3      0  LCI            5      0  MES            4      0  MRPP           9      0  PCP            21     0                           PDC            12     0  PPD            452    0  PPM            5      0                           PS             424    0  UDP            12     0
010511SAO JACINTO                   00000000000  802    598    11     26     AOC            3      0  CDS            91     0  FSP            5      0  LCI            1      0  MES            4      0  MRPP           7      0  PCP            33     0                           PDC            2      0  PPD            77     0  PPM            6      0                           PS             330    0  UDP            2      0
010512VERA CRUZ                     00000000000  6840   5956   36     133    AOC            17     0  CDS            1696   0  FSP            11     0  LCI            15     0  MES            26     0  MRPP           50     0  PCP            461    0                           PDC            30     0  PPD            1227   0  PPM            28     0                           PS             2172   0  UDP            54     0
010513SANTA JOANA                   500       0  0      0      0      0
010514N SRA DE FATIMA               500       0  0      0      0      0
010601BAIRROS                       00000000000  960    828    11     15     AOC            4      0  CDS            167    0  FSP            11     0  LCI            2      0  MES            4      0  MRPP           7      0  PCP            15     0                           PDC            10     0  PPD            316    0  PPM            2      0                           PS             249    0  UDP            15     0
010602FORNOS                        00000000000  1074   926    4      59     AOC            3      0  CDS            202    0  FSP            3      0  LCI            1      0  MES            4      0  MRPP           5      0  PCP            11     0                           PDC            1      0  PPD            297    0  PPM            2      0                           PS             329    0  UDP            5      0
010603PARAISO                       00000000000  722    540    3      1      AOC            5      0  CDS            114    0  FSP            3      0  LCI            5      0  MES            5      0  MRPP           3      0  PCP            24     0                           PDC            4      0  PPD            197    0  PPM            7      0                           PS             162    0  UDP            7      0
010604PEDORIDO                      00000000000  979    833    2      24     AOC            6      0  CDS            106    0  FSP            4      0  LCI            5      0  MES            6      0  MRPP           10     0  PCP            34     0                           PDC            15     0  PPD            222    0  PPM            3      0                           PS             370    0  UDP            26     0
010605RAIVA                         00000000000  1462   1144   16     72     AOC            13     0  CDS            116    0  FSP            12     0  LCI            10     0  MES            7      0  MRPP           7      0  PCP            60     0                           PDC            16     0  PPD            333    0  PPM            14     0                           PS             454    0  UDP            14     0
010606REAL                          00000000000  970    744    10     35     AOC            1      0  CDS            179    0  FSP            5      0  LCI            1      0  MES            7      0  MRPP           4      0  PCP            8      0                           PDC            3      0  PPD            279    0  PPM            9      0                           PS             201    0  UDP            2      0
010607SANTA MARIA DE SARDOURA       00000000000  1484   1248   10     53     AOC            3      0  CDS            309    0  FSP            5      0  LCI            2      0  MES            8      0  MRPP           2      0  PCP            14     0                           PDC            8      0  PPD            501    0  PPM            2      0                           PS             322    0  UDP            9      0
010608SAO MARTINHO DE SARDOURA      00000000000  742    677    8      4      AOC            3      0  CDS            114    0  FSP            5      0  LCI            1      0  MES            2      0  MRPP           4      0  PCP            13     0                           PDC            10     0  PPD            372    0  PPM            3      0                           PS             132    0  UDP            6      0
010609SOBRADO                       00000000000  1278   1137   9      11     AOC            3      0  CDS            369    0  FSP            2      0  LCI            1      0  MES            2      0  MRPP           6      0  PCP            22     0                           PDC            6      0  PPD            448    0  PPM            4      0                           PS             248    0  UDP            6      0
010701ANTA                          00000000000  3876   3450   24     94     AOC            12     0  CDS            322    0  FSP            10     0  LCI            17     0  MES            7      0  MRPP           11     0  PCP            316    0                           PDC            6      0  PPD            1062   0  PPM            3      0                           PS             1550   0  UDP            16     0
010702ESPINHO                       00000000000  9051   8237   37     151    AOC            25     0  CDS            1715   0  FSP            18     0  LCI            16     0  MES            23     0  MRPP           12     0  PCP            946    0                           PDC            17     0  PPD            2524   0  PPM            20     0                           PS             2686   0  UDP            47     0
010703GUETIM                        00000000000  804    739    3      24     AOC            4      0  CDS            75     0  FSP            4      0  LCI            1      0  MES            0      0  MRPP           4      0  PCP            36     0                           PDC            7      0  PPD            337    0  PPM            2      0                           PS             239    0  UDP            3      0
010704PARAMOS                       00000000000  2117   1813   7      94     AOC            7      0  CDS            137    0  FSP            6      0  LCI            2      0  MES            6      0  MRPP           7      0  PCP            179    0                           PDC            7      0  PPD            526    0  PPM            4      0                           PS             821    0  UDP            10     0
010705SILVALDE                      00000000000  4208   3750   29     80     AOC            11     0  CDS            237    0  FSP            11     0  LCI            16     0  MES            14     0  MRPP           6      0  PCP            358    0                           PDC            11     0  PPD            666    0  PPM            8      0                           PS             2273   0  UDP            30     0
010801AVANCA                        00000000000  3655   3067   13     108    AOC            12     0  CDS            735    0  FSP            19     0  LCI            5      0  MES            16     0  MRPP           3      0  PCP            62     0                           PDC            27     0  PPD            1110   0  PPM            21     0                           PS             893    0  UDP            43     0
010802BEDUIDO                       00000000000  4565   3812   20     133    AOC            9      0  CDS            613    0  FSP            20     0  LCI            8      0  MES            20     0  MRPP           9      0  PCP            253    0                           PDC            17     0  PPD            1573   0  PPM            14     0                           PS             1101   0  UDP            22     0
010803CANELAS                       00000000000  1047   860    8      35     AOC            3      0  CDS            171    0  FSP            6      0  LCI            1      0  MES            0      0  MRPP           1      0  PCP            60     0                           PDC            7      0  PPD            454    0  PPM            6      0                           PS             104    0  UDP            4      0
010804FERMELA                       00000000000  961    821    2      39     AOC            1      0  CDS            153    0  FSP            3      0  LCI            2      0  MES            0      0  MRPP           1      0  PCP            44     0                           PDC            3      0  PPD            415    0  PPM            3      0                           PS             149    0  UDP            6      0
010805PARDILHO                      00000000000  2441   1904   175    17     AOC            8      0  CDS            275    0  FSP            8      0  LCI            5      0  MES            7      0  MRPP           7      0  PCP            81     0                           PDC            6      0  PPD            894    0  PPM            9      0                           PS             395    0  UDP            17     0
010806SALREU                        00000000000  2999   2381   8      116    AOC            8      0  CDS            760    0  FSP            7      0  LCI            6      0  MES            11     0  MRPP           11     0  PCP            55     0                           PDC            13     0  PPD            1044   0  PPM            7      0                           PS             319    0  UDP            16     0
010807VEIROS                        00000000000  1328   1040   16     98     AOC            4      0  CDS            219    0  FSP            4      0  LCI            4      0  MES            6      0  MRPP           3      0  PCP            15     0                           PDC            11     0  PPD            479    0  PPM            5      0                           PS             167    0  UDP            9      0
010901ARGONCILHE                    00000000000  4127   3669   15     166    AOC            18     0  CDS            620    0  FSP            23     0  LCI            6      0  MES            14     0  MRPP           9      0  PCP            165    0                           PDC            12     0  PPD            1201   0  PPM            2      0                           PS             1381   0  UDP            37     0
010902ARRIFANA                      00000000000  3688   3068   20     146    AOC            7      0  CDS            301    0  FSP            6      0  LCI            11     0  MES            23     0  MRPP           4      0  PCP            108    0                           PDC            7      0  PPD            700    0  PPM            4      0                           PS             1698   0  UDP            33     0
010903CANEDO                        00000000000  2499   1988   15     133    AOC            18     0  CDS            336    0  FSP            7      0  LCI            3      0  MES            13     0  MRPP           16     0  PCP            18     0                           PDC            12     0  PPD            1032   0  PPM            8      0                           PS             365    0  UDP            12     0
010904ESCAPAES                      00000000000  1450   1250   3      41     AOC            1      0  CDS            111    0  FSP            4      0  LCI            8      0  MES            5      0  MRPP           9      0  PCP            47     0                           PDC            1      0  PPD            359    0  PPM            5      0                           PS             649    0  UDP            7      0
010905ESPARGO                       00000000000  822    726    8      54     AOC            1      0  CDS            109    0  FSP            3      0  LCI            4      0  MES            5      0  MRPP           5      0  PCP            16     0                           PDC            6      0  PPD            322    0  PPM            5      0                           PS             178    0  UDP            10     0
010906FEIRA                         00000000000  3363   2994   12     76     AOC            10     0  CDS            361    0  FSP            6      0  LCI            13     0  MES            21     0  MRPP           61     0  PCP            89     0                           PDC            11     0  PPD            811    0  PPM            17     0                           PS             1484   0  UDP            22     0
010907FIAES                         00000000000  3908   3533   11     112    AOC            4      0  CDS            344    0  FSP            17     0  LCI            11     0  MES            16     0  MRPP           3      0  PCP            234    0                           PDC            9      0  PPD            882    0  PPM            9      0                           PS             1818   0  UDP            63     0
010908FORNOS                        00000000000  1279   1166   2      65     AOC            2      0  CDS            199    0  FSP            9      0  LCI            5      0  MES            6      0  MRPP           7      0  PCP            26     0                           PDC            8      0  PPD            336    0  PPM            2      0                           PS             486    0  UDP            13     0
010909GIAO                          00000000000  528    503    2      15     AOC            2      0  CDS            50     0  FSP            2      0  LCI            0      0  MES            2      0  MRPP           0      0  PCP            0      0                           PDC            3      0  PPD            344    0  PPM            4      0                           PS             76     0  UDP            3      0
010910GUISANDE                      00000000000  649    578    4      24     AOC            2      0  CDS            74     0  FSP            1      0  LCI            2      0  MES            4      0  MRPP           3      0  PCP            8      0                           PDC            5      0  PPD            295    0  PPM            1      0                           PS             149    0  UDP            6      0
010911LOBAO                         00000000000  2327   1924   12     99     AOC            13     0  CDS            261    0  FSP            4      0  LCI            11     0  MES            4      0  MRPP           6      0  PCP            27     0                           PDC            7      0  PPD            795    0  PPM            9      0                           PS             619    0  UDP            57     0
010912LOUREDO                       00000000000  780    689    3      27     AOC            2      0  CDS            139    0  FSP            0      0  LCI            0      0  MES            1      0  MRPP           3      0  PCP            4      0                           PDC            3      0  PPD            392    0  PPM            4      0                           PS             109    0  UDP            2      0
010913LOUROSA                       00000000000  4350   3977   19     110    AOC            5      0  CDS            496    0  FSP            9      0  LCI            13     0  MES            10     0  MRPP           5      0  PCP            89     0                           PDC            16     0  PPD            1210   0  PPM            12     0                           PS             1938   0  UDP            45     0
010914MILHEIROS DE POIARES          00000000000  1590   1423   10     51     AOC            4      0  CDS            158    0  FSP            7      0  LCI            4      0  MES            35     0  MRPP           1      0  PCP            24     0                           PDC            9      0  PPD            385    0  PPM            2      0                           PS             722    0  UDP            11     0
010915MOSTEIRO                      00000000000  942    829    8      41     AOC            4      0  CDS            68     0  FSP            5      0  LCI            1      0  MES            6      0  MRPP           3      0  PCP            22     0                           PDC            6      0  PPD            283    0  PPM            1      0                           PS             354    0  UDP            27     0
010916MOZELOS                       00000000000  2552   2337   6      22     AOC            8      0  CDS            311    0  FSP            5      0  LCI            8      0  MES            6      0  MRPP           5      0  PCP            70     0                           PDC            9      0  PPD            821    0  PPM            10     0                           PS             1041   0  UDP            15     0
010917NOGUEIRA DA REGEDOURA         00000000000  1937   1797   9      50     AOC            8      0  CDS            122    0  FSP            3      0  LCI            2      0  MES            3      0  MRPP           0      0  PCP            71     0                           PDC            4      0  PPD            829    0  PPM            5      0                           PS             682    0  UDP            9      0
010918SAO PAIO DE OLEIROS           00000000000  1971   1827   7      5      AOC            3      0  CDS            229    0  FSP            10     0  LCI            15     0  MES            2      0  MRPP           2      0  PCP            259    0                           PDC            4      0  PPD            455    0  PPM            5      0                           PS             812    0  UDP            19     0
010919PACOS DE BRANDAO              00000000000  2647   2490   5      55     AOC            6      0  CDS            360    0  FSP            2      0  LCI            5      0  MES            3      0  MRPP           4      0  PCP            33     0                           PDC            15     0  PPD            1118   0  PPM            4      0                           PS             870    0  UDP            10     0
010920PIGEIROS                      00000000000  562    494    7      13     AOC            4      0  CDS            61     0  FSP            2      0  LCI            2      0  MES            5      0  MRPP           0      0  PCP            42     0                           PDC            1      0  PPD            194    0  PPM            2      0                           PS             157    0  UDP            4      0
010921RIO MEAO                      00000000000  2339   2144   11     70     AOC            1      0  CDS            433    0  FSP            7      0  LCI            4      0  MES            3      0  MRPP           10     0  PCP            46     0                           PDC            9      0  PPD            625    0  PPM            3      0                           PS             913    0  UDP            9      0
010922ROMARIZ                       00000000000  1762   1549   10     65     AOC            5      0  CDS            412    0  FSP            5      0  LCI            1      0  MES            6      0  MRPP           3      0  PCP            6      0                           PDC            7      0  PPD            465    0  PPM            4      0                           PS             547    0  UDP            13     0
010923SANFINS                       00000000000  912    793    4      25     AOC            2      0  CDS            56     0  FSP            3      0  LCI            0      0  MES            0      0  MRPP           7      0  PCP            24     0                           PDC            1      0  PPD            282    0  PPM            4      0                           PS             377    0  UDP            8      0
010924SANGUEDO                      00000000000  1423   1287   4      61     AOC            2      0  CDS            164    0  FSP            9      0  LCI            3      0  MES            4      0  MRPP           2      0  PCP            40     0                           PDC            8      0  PPD            553    0  PPM            7      0                           PS             416    0  UDP            14     0
010925SANTA MARIA DE LAMAS          00000000000  2712   2526   8      64     AOC            8      0  CDS            360    0  FSP            5      0  LCI            4      0  MES            6      0  MRPP           5      0  PCP            73     0                           PDC            20     0  PPD            869    0  PPM            6      0                           PS             1094   0  UDP            4      0
010926SAO JOAO DE VER               00000000000  3307   2837   20     139    AOC            6      0  CDS            240    0  FSP            16     0  LCI            7      0  MES            21     0  MRPP           14     0  PCP            93     0                           PDC            9      0  PPD            879    0  PPM            7      0                           PS             1360   0  UDP            26     0
010927CALDAS DE SAO JORGE           00000000000  1195   1071   7      45     AOC            0      0  CDS            221    0  FSP            3      0  LCI            2      0  MES            3      0  MRPP           0      0  PCP            45     0                           PDC            4      0  PPD            291    0  PPM            2      0                           PS             438    0  UDP            10     0
010928SOUTO                         00000000000  2458   2082   16     108    AOC            10     0  CDS            300    0  FSP            10     0  LCI            9      0  MES            12     0  MRPP           6      0  PCP            28     0                           PDC            10     0  PPD            706    0  PPM            6      0                           PS             844    0  UDP            17     0
010929TRAVANCA                      00000000000  1971   1827   7      5      AOC            3      0  CDS            229    0  FSP            10     0  LCI            15     0  MES            2      0  MRPP           2      0  PCP            259    0                           PDC            4      0  PPD            455    0  PPM            5      0                           PS             812    0  UDP            19     0
010930VALE                          00000000000  1194   970    3      41     AOC            3      0  CDS            230    0  FSP            7      0  LCI            8      0  MES            4      0  MRPP           0      0  PCP            16     0                           PDC            5      0  PPD            487    0  PPM            4      0                           PS             156    0  UDP            6      0
010931VILA MAIOR                    00000000000  597    531    2      12     AOC            3      0  CDS            52     0  FSP            4      0  LCI            0      0  MES            1      0  MRPP           2      0  PCP            5      0                           PDC            1      0  PPD            356    0  PPM            2      0                           PS             86     0  UDP            5      0
011001GAFANHA DO CARMO              00000000000  776    586    5      20     AOC            2      0  CDS            112    0  FSP            1      0  LCI            1      0  MES            1      0  MRPP           2      0  PCP            6      0                           PDC            6      0  PPD            342    0  PPM            2      0                           PS             83     0  UDP            3      0
011002GAFANHA DA ENCARNACAO         00000000000  2115   1770   6      82     AOC            12     0  CDS            365    0  FSP            16     0  LCI            4      0  MES            7      0  MRPP           8      0  PCP            18     0                           PDC            16     0  PPD            885    0  PPM            7      0                           PS             336    0  UDP            8      0
011003GAFANHA DA NAZARE             00000000000  6320   5223   39     202    AOC            23     0  CDS            1113   0  FSP            22     0  LCI            16     0  MES            14     0  MRPP           42     0  PCP            175    0                           PDC            38     0  PPD            2020   0  PPM            22     0                           PS             1457   0  UDP            40     0
011004I  S SALVADOR                 00000000000  9252   7856   39     227    AOC            25     0  CDS            1488   0  FSP            35     0  LCI            7      0  MES            25     0  MRPP           35     0  PCP            266    0                           PDC            33     0  PPD            2998   0  PPM            22     0                           PS             2597   0  UDP            59     0
011101ANTES                         00000000000  599    525    2      36     AOC            1      0  CDS            101    0  FSP            0      0  LCI            0      0  MES            2      0  MRPP           1      0  PCP            11     0                           PDC            3      0  PPD            215    0  PPM            1      0                           PS             150    0  UDP            2      0
011102BARCOUCO                      00000000000  1330   993    10     52     AOC            9      0  CDS            34     0  FSP            9      0  LCI            4      0  MES            3      0  MRPP           15     0  PCP            29     0                           PDC            3      0  PPD            236    0  PPM            5      0                           PS             561    0  UDP            23     0
011103CASAL COMBA                   00000000000  2081   1530   6      98     AOC            5      0  CDS            155    0  FSP            6      0  LCI            8      0  MES            5      0  MRPP           6      0  PCP            58     0                           PDC            4      0  PPD            382    0  PPM            6      0                           PS             786    0  UDP            5      0
011104LUSO                          00000000000  1808   1284   11     71     AOC            6      0  CDS            132    0  FSP            15     0  LCI            2      0  MES            9      0  MRPP           8      0  PCP            98     0                           PDC            7      0  PPD            404    0  PPM            7      0                           PS             511    0  UDP            3      0
011105MEALHADA                      00000000000  1951   1593   16     78     AOC            5      0  CDS            112    0  FSP            11     0  LCI            5      0  MES            3      0  MRPP           3      0  PCP            160    0                           PDC            5      0  PPD            395    0  PPM            2      0                           PS             794    0  UDP            4      0
011106PAMPILHOSA                    00000000000  2371   1948   39     45     AOC            6      0  CDS            180    0  FSP            12     0  LCI            7      0  MES            9      0  MRPP           5      0  PCP            174    0                           PDC            12     0  PPD            382    0  PPM            10     0                           PS             1044   0  UDP            23     0
011107VACARICA                      00000000000  1404   981    4      51     AOC            4      0  CDS            58     0  FSP            9      0  LCI            3      0  MES            0      0  MRPP           10     0  PCP            37     0                           PDC            2      0  PPD            333    0  PPM            3      0                           PS             467    0  UDP            0      0
011108VENTOSA DO BAIRRO             00000000000  863    704    5      57     AOC            1      0  CDS            84     0  FSP            3      0  LCI            2      0  MES            1      0  MRPP           1      0  PCP            9      0                           PDC            3      0  PPD            331    0  PPM            2      0                           PS             200    0  UDP            5      0
011201BUNHEIRO                      00000000000  2040   1588   12     87     AOC            2      0  CDS            444    0  FSP            4      0  LCI            4      0  MES            0      0  MRPP           3      0  PCP            12     0                           PDC            8      0  PPD            870    0  PPM            5      0                           PS             124    0  UDP            13     0
011202MONTE                         00000000000  1093   860    9      30     AOC            2      0  CDS            198    0  FSP            1      0  LCI            3      0  MES            4      0  MRPP           1      0  PCP            11     0                           PDC            5      0  PPD            460    0  PPM            2      0                           PS             130    0  UDP            4      0
011203MURTOSA                       00000000000  2840   2098   12     98     AOC            10     0  CDS            502    0  FSP            3      0  LCI            7      0  MES            10     0  MRPP           14     0  PCP            18     0                           PDC            10     0  PPD            1120   0  PPM            5      0                           PS             278    0  UDP            11     0
011204TORREIRA                      00000000000  1118   886    12     82     AOC            4      0  CDS            81     0  FSP            3      0  LCI            2      0  MES            2      0  MRPP           1      0  PCP            10     0                           PDC            3      0  PPD            467    0  PPM            3      0                           PS             207    0  UDP            9      0
011301CARREGOSA                     00000000000  1806   1619   5      87     AOC            7      0  CDS            657    0  FSP            8      0  LCI            2      0  MES            6      0  MRPP           4      0  PCP            15     0                           PDC            15     0  PPD            532    0  PPM            7      0                           PS             266    0  UDP            8      0
011302CESAR                         00000000000  1460   1343   4      15     AOC            1      0  CDS            281    0  FSP            6      0  LCI            9      0  MES            3      0  MRPP           4      0  PCP            27     0                           PDC            3      0  PPD            481    0  PPM            4      0                           PS             484    0  UDP            21     0
011303FAJOES                        00000000000  1578   1429   26     26     AOC            6      0  CDS            488    0  FSP            5      0  LCI            8      0  MES            8      0  MRPP           4      0  PCP            12     0                           PDC            5      0  PPD            566    0  PPM            3      0                           PS             263    0  UDP            9      0
011304LOUREIRO                      00000000000  2040   1782   8      44     AOC            10     0  CDS            250    0  FSP            4      0  LCI            3      0  MES            5      0  MRPP           3      0  PCP            15     0                           PDC            10     0  PPD            1199   0  PPM            3      0                           PS             219    0  UDP            9      0
011305MACIEIRA DE SARNES            00000000000  1133   1014   3      20     AOC            5      0  CDS            96     0  FSP            5      0  LCI            3      0  MES            97     0  MRPP           3      0  PCP            50     0                           PDC            2      0  PPD            235    0  PPM            1      0                           PS             477    0  UDP            17     0
011306MACINHATA DE SEIXA            00000000000  737    630    8      5      AOC            1      0  CDS            122    0  FSP            9      0  LCI            2      0  MES            1      0  MRPP           1      0  PCP            15     0                           PDC            7      0  PPD            242    0  PPM            2      0                           PS             209    0  UDP            6      0
011307MADAIL                        00000000000  430    374    3      12     AOC            3      0  CDS            59     0  FSP            1      0  LCI            1      0  MES            3      0  MRPP           0      0  PCP            4      0                           PDC            1      0  PPD            213    0  PPM            1      0                           PS             73     0  UDP            0      0
011308NOGUEIRA DO CRAVO             00000000000  1384   1284   12     29     AOC            2      0  CDS            263    0  FSP            9      0  LCI            2      0  MES            7      0  MRPP           1      0  PCP            85     0                           PDC            6      0  PPD            261    0  PPM            5      0                           PS             591    0  UDP            11     0
011309OLIVEIRA DE AZEMEIS           00000000000  5622   4907   15     155    AOC            10     0  CDS            1209   0  FSP            12     0  LCI            23     0  MES            27     0  MRPP           17     0  PCP            176    0                           PDC            12     0  PPD            1678   0  PPM            18     0                           PS             1528   0  UDP            27     0
011310OSSELA                        00000000000  1273   1071   8      8      AOC            6      0  CDS            444    0  FSP            4      0  LCI            3      0  MES            4      0  MRPP           6      0  PCP            10     0                           PDC            8      0  PPD            359    0  PPM            4      0                           PS             191    0  UDP            16     0
011311PALMAZ                        00000000000  1257   1064   4      33     AOC            5      0  CDS            271    0  FSP            4      0  LCI            1      0  MES            11     0  MRPP           8      0  PCP            11     0                           PDC            13     0  PPD            450    0  PPM            8      0                           PS             235    0  UDP            10     0
011312PINDELO                       00000000000  1402   1243   9      63     AOC            2      0  CDS            253    0  FSP            10     0  LCI            3      0  MES            4      0  MRPP           0      0  PCP            34     0                           PDC            5      0  PPD            393    0  PPM            7      0                           PS             456    0  UDP            4      0
011313PINHEIRO DA BEMPOSTA          00000000000  1881   1507   7      65     AOC            2      0  CDS            440    0  FSP            7      0  LCI            1      0  MES            18     0  MRPP           3      0  PCP            15     0                           PDC            10     0  PPD            653    0  PPM            7      0                           PS             265    0  UDP            14     0
011314SANTIAGO DE RIBA-UL           00000000000  1946   1735   10     67     AOC            3      0  CDS            285    0  FSP            5      0  LCI            6      0  MES            20     0  MRPP           1      0  PCP            97     0                           PDC            8      0  PPD            557    0  PPM            5      0                           PS             663    0  UDP            8      0
011315SAO MARTINHO DA GANDARA       00000000000  1349   1166   13     43     AOC            0      0  CDS            305    0  FSP            3      0  LCI            0      0  MES            7      0  MRPP           2      0  PCP            25     0                           PDC            10     0  PPD            347    0  PPM            8      0                           PS             397    0  UDP            6      0
011316TRAVANCA                      00000000000  863    750    5      10     AOC            1      0  CDS            208    0  FSP            2      0  LCI            2      0  MES            5      0  MRPP           5      0  PCP            6      0                           PDC            10     0  PPD            318    0  PPM            2      0                           PS             169    0  UDP            7      0
011317UL                            00000000000  1783   1551   10     79     AOC            2      0  CDS            270    0  FSP            11     0  LCI            8      0  MES            9      0  MRPP           3      0  PCP            24     0                           PDC            11     0  PPD            603    0  PPM            14     0                           PS             496    0  UDP            11     0
011318SAO ROQUE                     00000000000  2416   2190   10     91     AOC            4      0  CDS            333    0  FSP            11     0  LCI            5      0  MES            11     0  MRPP           4      0  PCP            57     0                           PDC            5      0  PPD            673    0  PPM            2      0                           PS             896    0  UDP            88     0
011319VILA DE CUCUJAES              00000000000  6578   5858   20     208    AOC            7      0  CDS            769    0  FSP            26     0  LCI            17     0  MES            66     0  MRPP           11     0  PCP            163    0                           PDC            13     0  PPD            1812   0  PPM            13     0                           PS             2666   0  UDP            67     0
011401BUSTOS                        00000000000  1443   1177   5      50     AOC            3      0  CDS            293    0  FSP            4      0  LCI            1      0  MES            1      0  MRPP           10     0  PCP            42     0                           PDC            3      0  PPD            619    0  PPM            3      0                           PS             139    0  UDP            4      0
011402MAMARROSA                     00000000000  1093   883    5      23     AOC            3      0  CDS            341    0  FSP            1      0  LCI            2      0  MES            0      0  MRPP           2      0  PCP            4      0                           PDC            3      0  PPD            382    0  PPM            3      0                           PS             106    0  UDP            8      0
011403OIA                           00000000000  3690   3153   13     125    AOC            6      0  CDS            856    0  FSP            5      0  LCI            4      0  MES            8      0  MRPP           16     0  PCP            30     0                           PDC            12     0  PPD            1681   0  PPM            9      0                           PS             373    0  UDP            15     0
011404OLIVEIRA DO BAIRRO            00000000000  2689   2172   9      114    AOC            4      0  CDS            714    0  FSP            5      0  LCI            7      0  MES            5      0  MRPP           6      0  PCP            24     0                           PDC            16     0  PPD            873    0  PPM            7      0                           PS             370    0  UDP            18     0
011405PALHACA                       00000000000  1273   1018   3      51     AOC            0      0  CDS            367    0  FSP            1      0  LCI            2      0  MES            1      0  MRPP           6      0  PCP            12     0                           PDC            8      0  PPD            498    0  PPM            3      0                           PS             63     0  UDP            3      0
011406TROVISCAL                     00000000000  1545   1344   6      37     AOC            4      0  CDS            393    0  FSP            3      0  LCI            0      0  MES            5      0  MRPP           5      0  PCP            7      0                           PDC            2      0  PPD            702    0  PPM            7      0                           PS             170    0  UDP            3      0
011501ARADA                         00000000000  1753   1476   9      84     AOC            4      0  CDS            180    0  FSP            8      0  LCI            7      0  MES            4      0  MRPP           3      0  PCP            40     0                           PDC            7      0  PPD            723    0  PPM            2      0                           PS             401    0  UDP            4      0
011502CORTEGACA                     00000000000  2106   1951   10     61     AOC            4      0  CDS            172    0  FSP            7      0  LCI            6      0  MES            7      0  MRPP           9      0  PCP            56     0                           PDC            4      0  PPD            636    0  PPM            6      0                           PS             960    0  UDP            13     0
011503ESMORIZ                       00000000000  4564   4127   15     141    AOC            4      0  CDS            420    0  FSP            19     0  LCI            13     0  MES            7      0  MRPP           13     0  PCP            133    0                           PDC            7      0  PPD            1464   0  PPM            3      0                           PS             1869   0  UDP            19     0
011504MACEDA                        00000000000  1930   1686   8      72     AOC            7      0  CDS            280    0  FSP            15     0  LCI            3      0  MES            0      0  MRPP           1      0  PCP            43     0                           PDC            6      0  PPD            528    0  PPM            8      0                           PS             708    0  UDP            7      0
011505OVAR                          00000000000  11360  9286   40     328    AOC            20     0  CDS            1201   0  FSP            54     0  LCI            24     0  MES            56     0  MRPP           19     0  PCP            1118   0                           PDC            44     0  PPD            2480   0  PPM            44     0                           PS             3604   0  UDP            254    0
011506SAO VICENTE DE PEREIRA JUSA   00000000000  1336   1162   8      76     AOC            4      0  CDS            182    0  FSP            4      0  LCI            2      0  MES            12     0  MRPP           2      0  PCP            16     0                           PDC            4      0  PPD            424    0  PPM            3      0                           PS             410    0  UDP            15     0
011507VALEGA                        00000000000  3447   2651   22     167    AOC            0      0  CDS            564    0  FSP            19     0  LCI            9      0  MES            24     0  MRPP           3      0  PCP            71     0                           PDC            15     0  PPD            888    0  PPM            11     0                           PS             829    0  UDP            29     0
011508SAO JOAO                      500       0  0      0      0      0
011601SAO JOAO DA MADEIRA           00000000000  10471  9548   42     344    AOC            20     0  CDS            1928   0  FSP            34     0  LCI            16     0  MES            72     0  MRPP           18     0  PCP            577    0                           PDC            23     0  PPD            2278   0  PPM            16     0                           PS             4021   0  UDP            159    0
011701CEDRIM                        00000000000  687    597    1      29     AOC            0      0  CDS            375    0  FSP            0      0  LCI            0      0  MES            0      0  MRPP           3      0  PCP            0      0                           PDC            5      0  PPD            147    0  PPM            0      0                           PS             31     0  UDP            6      0
011702COUTO DE ESTEVES              00000000000  939    700    6      28     AOC            2      0  CDS            267    0  FSP            3      0  LCI            2      0  MES            7      0  MRPP           5      0  PCP            19     0                           PDC            2      0  PPD            276    0  PPM            0      0                           PS             69     0  UDP            14     0
011703PARADELA                      00000000000  564    485    3      23     AOC            0      0  CDS            232    0  FSP            2      0  LCI            2      0  MES            0      0  MRPP           3      0  PCP            12     0                           PDC            2      0  PPD            152    0  PPM            4      0                           PS             47     0  UDP            3      0
011704PESSEGUEIRO DO VOUGA          00000000000  1355   1174   1      66     AOC            4      0  CDS            447    0  FSP            2      0  LCI            1      0  MES            1      0  MRPP           5      0  PCP            11     0                           PDC            12     0  PPD            498    0  PPM            2      0                           PS             117    0  UDP            7      0
011705ROCAS DO VOUGA                00000000000  1327   1038   13     54     AOC            3      0  CDS            460    0  FSP            2      0  LCI            1      0  MES            4      0  MRPP           7      0  PCP            26     0                           PDC            4      0  PPD            326    0  PPM            5      0                           PS             120    0  UDP            13     0
011706SEVER DO VOUGA                00000000000  1488   1281   6      54     AOC            4      0  CDS            531    0  FSP            5      0  LCI            1      0  MES            9      0  MRPP           6      0  PCP            48     0                           PDC            4      0  PPD            421    0  PPM            8      0                           PS             165    0  UDP            19     0
011707SILVA ESCURA                  00000000000  1693   1693   257    37     AOC            7      0  CDS            518    0  FSP            0      0  LCI            8      0  MES            7      0  MRPP           9      0  PCP            16     0                           PDC            11     0  PPD            546    0  PPM            7      0                           PS             254    0  UDP            16     0
011708TALHADAS                      00000000000  899    756    7      32     AOC            1      0  CDS            359    0  FSP            2      0  LCI            2      0  MES            0      0  MRPP           2      0  PCP            13     0                           PDC            5      0  PPD            216    0  PPM            5      0                           PS             107    0  UDP            5      0
011709DORNELAS                      500       0  0      0      0      0
011801CALVAO                        00000000000  1071   836    11     36     AOC            3      0  CDS            440    0  FSP            2      0  LCI            2      0  MES            4      0  MRPP           9      0  PCP            5      0                           PDC            8      0  PPD            237    0  PPM            4      0                           PS             70     0  UDP            5      0
011802COVAO DO LOBO                 00000000000  1323   1113   11     49     AOC            4      0  CDS            477    0  FSP            1      0  LCI            2      0  MES            5      0  MRPP           2      0  PCP            2      0                           PDC            4      0  PPD            523    0  PPM            2      0                           PS             29     0  UDP            2      0
011803FONTE DE ANGEAO               00000000000  892    726    2      5      AOC            1      0  CDS            161    0  FSP            0      0  LCI            1      0  MES            0      0  MRPP           2      0  PCP            0      0                           PDC            2      0  PPD            498    0  PPM            1      0                           PS             50     0  UDP            3      0
011804GAFANHA DA BOA HORA           00000000000  1277   904    10     35     AOC            1      0  CDS            372    0  FSP            0      0  LCI            1      0  MES            8      0  MRPP           4      0  PCP            6      0                           PDC            9      0  PPD            341    0  PPM            2      0                           PS             111    0  UDP            4      0
011805OUCA                          00000000000  1103   909    2      37     AOC            0      0  CDS            412    0  FSP            2      0  LCI            2      0  MES            1      0  MRPP           3      0  PCP            2      0                           PDC            7      0  PPD            374    0  PPM            1      0                           PS             57     0  UDP            9      0
011806PONTE DE VAGOS                00000000000  596    515    1      15     AOC            3      0  CDS            93     0  FSP            0      0  LCI            0      0  MES            2      0  MRPP           1      0  PCP            1      0                           PDC            0      0  PPD            383    0  PPM            0      0                           PS             13     0  UDP            3      0
011807SOZA                          00000000000  1709   1357   1      35     AOC            3      0  CDS            698    0  FSP            3      0  LCI            0      0  MES            3      0  MRPP           1      0  PCP            12     0                           PDC            16     0  PPD            439    0  PPM            3      0                           PS             132    0  UDP            11     0
011808VAGOS                         00000000000  3873   3231   21     130    AOC            7      0  CDS            1495   0  FSP            4      0  LCI            3      0  MES            8      0  MRPP           8      0  PCP            36     0                           PDC            13     0  PPD            865    0  PPM            20     0                           PS             604    0  UDP            17     0
011809SANTO ANTONIO DE VAGOS        500       0  0      0      0      0
011810SANTO ANDRE DE VAGOS          500       0  0      0      0      0
011811SANTA CATARINA                500       0  0      0      0      0
011901AROES                         00000000000  1637   940    17     47     AOC            1      0  CDS            346    0  FSP            7      0  LCI            3      0  MES            2      0  MRPP           2      0  PCP            15     0                           PDC            6      0  PPD            348    0  PPM            2      0                           PS             139    0  UDP            5      0
011902SAO PEDRO DE CASTELOES        00000000000  3820   3329   11     126    AOC            9      0  CDS            1052   0  FSP            5      0  LCI            4      0  MES            13     0  MRPP           30     0  PCP            32     0                           PDC            21     0  PPD            1469   0  PPM            23     0                           PS             515    0  UDP            19     0
011903CEPELOS                       00000000000  1160   900    2      40     AOC            4      0  CDS            421    0  FSP            7      0  LCI            0      0  MES            3      0  MRPP           2      0  PCP            9      0                           PDC            8      0  PPD            306    0  PPM            3      0                           PS             90     0  UDP            5      0
011904CODAL                         00000000000  464    407    0      4      AOC            3      0  CDS            88     0  FSP            2      0  LCI            0      0  MES            2      0  MRPP           2      0  PCP            2      0                           PDC            2      0  PPD            168    0  PPM            0      0                           PS             124    0  UDP            10     0
011905JUNQUEIRA                     00000000000  960    804    4      20     AOC            1      0  CDS            336    0  FSP            2      0  LCI            1      0  MES            2      0  MRPP           2      0  PCP            4      0                           PDC            3      0  PPD            359    0  PPM            1      0                           PS             64     0  UDP            5      0
011906MACIEIRA DE CAMBRA            00000000000  2866   2476   21     99     AOC            8      0  CDS            659    0  FSP            8      0  LCI            10     0  MES            22     0  MRPP           23     0  PCP            88     0                           PDC            25     0  PPD            663    0  PPM            11     0                           PS             819    0  UDP            20     0
011907ROGE                          00000000000  1291   1015   5      57     AOC            6      0  CDS            286    0  FSP            8      0  LCI            3      0  MES            7      0  MRPP           5      0  PCP            10     0                           PDC            9      0  PPD            395    0  PPM            4      0                           PS             207    0  UDP            13     0
011908VILA CHA                      00000000000  2326   2040   3      64     AOC            6      0  CDS            495    0  FSP            6      0  LCI            4      0  MES            6      0  MRPP           40     0  PCP            45     0                           PDC            7      0  PPD            845    0  PPM            8      0                           PS             479    0  UDP            32     0
011909VILA COVA DE PERRINHO         00000000000  323    286    2      18     AOC            0      0  CDS            96     0  FSP            3      0  LCI            3      0  MES            1      0  MRPP           2      0  PCP            5      0                           PDC            0      0  PPD            86     0  PPM            0      0                           PS             69     0  UDP            1      0
020101ALJUSTREL                     00000000000  5277   4752   17     75     AOC            8      0  CDS            77     0  FSP            24     0  LCI            6      0  MES            34     0  MRPP           7      0  PCP            2760   0                                                    PPD            151    0  PPM            18     0                           PS             1541   0  UDP            34     0
020102ERVIDEL                       00000000000  1405   1279   19     16     AOC            15     0  CDS            26     0  FSP            13     0  LCI            5      0  MES            9      0  MRPP           3      0  PCP            806    0                                                    PPD            54     0  PPM            4      0                           PS             287    0  UDP            22     0
020103MESSEJANA                     00000000000  1247   1052   15     45     AOC            2      0  CDS            34     0  FSP            15     0  LCI            5      0  MES            10     0  MRPP           1      0  PCP            452    0                                                    PPD            57     0  PPM            4      0                           PS             406    0  UDP            6      0
020104SAO JOAO DE NEGRILHOS         00000000000  1664   1480   4      31     AOC            3      0  CDS            53     0  FSP            14     0  LCI            3      0  MES            22     0  MRPP           2      0  PCP            748    0                                                    PPD            112    0  PPM            3      0                           PS             462    0  UDP            23     0
020105RIO DE MOINHOS                500       0  0      0      0      0
020201ALMODOVAR                     00000000000  2768   2034   14     103    AOC            14     0  CDS            107    0  FSP            25     0  LCI            9      0  MES            32     0  MRPP           16     0  PCP            450    0                                                    PPD            329    0  PPM            24     0                           PS             861    0  UDP            50     0
020202GOMES AIRES                   00000000000  1095   795    11     12     AOC            10     0  CDS            30     0  FSP            25     0  LCI            8      0  MES            14     0  MRPP           3      0  PCP            147    0                                                    PPD            86     0  PPM            11     0                           PS             420    0  UDP            18     0
020203ROSARIO                       00000000000  510    401    7      23     AOC            1      0  CDS            1      0  FSP            7      0  LCI            4      0  MES            10     0  MRPP           0      0  PCP            163    0                                                    PPD            13     0  PPM            2      0                           PS             165    0  UDP            5      0
020204SANTA CLARA-A-NOVA            00000000000  882    551    4      26     AOC            7      0  CDS            23     0  FSP            31     0  LCI            4      0  MES            7      0  MRPP           0      0  PCP            60     0                                                    PPD            85     0  PPM            5      0                           PS             293    0  UDP            6      0
020205SANTA CRUZ                    00000000000  1084   728    15     35     AOC            9      0  CDS            76     0  FSP            18     0  LCI            11     0  MES            8      0  MRPP           4      0  PCP            74     0                                                    PPD            101    0  PPM            8      0                           PS             353    0  UDP            16     0
020206SAO BARNABE                   00000000000  1122   646    8      40     AOC            21     0  CDS            25     0  FSP            23     0  LCI            5      0  MES            10     0  MRPP           1      0  PCP            39     0                                                    PPD            261    0  PPM            10     0                           PS             194    0  UDP            9      0
020207SENHORA DA GRACA DE PADROES   00000000000  410    336    2      4      AOC            0      0  CDS            10     0  FSP            7      0  LCI            0      0  MES            7      0  MRPP           1      0  PCP            168    0                                                    PPD            24     0  PPM            3      0                           PS             101    0  UDP            9      0
020208ALDEIA DOS FERNANDES          500       0  0      0      0      0
020301ALVITO                        00000000000  1209   1076   9      30     AOC            3      0  CDS            75     0  FSP            12     0  LCI            1      0  MES            11     0  MRPP           2      0  PCP            511    0                                                    PPD            158    0  PPM            4      0                           PS             245    0  UDP            15     0
020302VILA NOVA DA BARONIA          00000000000  1077   970    25     83     AOC            8      0  CDS            64     0  FSP            38     0  LCI            4      0  MES            26     0  MRPP           2      0  PCP            325    0                                                    PPD            81     0  PPM            8      0                           PS             284    0  UDP            22     0
020401BARRANCOS                     00000000000  1678   1403   24     25     AOC            12     0  CDS            48     0  FSP            30     0  LCI            7      0  MES            14     0  MRPP           5      0  PCP            533    0                                                    PPD            84     0  PPM            8      0                           PS             573    0  UDP            40     0
020501ALBERNOA                      00000000000  912    831    5      28     AOC            3      0  CDS            17     0  FSP            4      0  LCI            0      0  MES            20     0  MRPP           2      0  PCP            388    0                                                    PPD            43     0  PPM            3      0                           PS             247    0  UDP            71     0
020502BALEIZAO                      00000000000  1251   1104   9      30     AOC            0      0  CDS            12     0  FSP            2      0  LCI            1      0  MES            16     0  MRPP           3      0  PCP            693    0                                                    PPD            25     0  PPM            3      0                           PS             136    0  UDP            174    0
020503BERINGEL                      00000000000  2187   1926   18     41     AOC            8      0  CDS            118    0  FSP            17     0  LCI            4      0  MES            43     0  MRPP           8      0  PCP            992    0                                                    PPD            222    0  PPM            7      0                           PS             415    0  UDP            33     0
020504CABECA GORDA                  00000000000  1403   1284   15     19     AOC            3      0  CDS            27     0  FSP            10     0  LCI            9      0  MES            10     0  MRPP           4      0  PCP            521    0                                                    PPD            70     0  PPM            7      0                           PS             569    0  UDP            20     0
020505MOMBEJA                       00000000000  441    400    15     27     AOC            3      0  CDS            19     0  FSP            4      0  LCI            3      0  MES            10     0  MRPP           2      0  PCP            197    0                                                    PPD            20     0  PPM            2      0                           PS             94     0  UDP            4      0
020506N SRA DAS NEVES               00000000000  1734   1461   19     72     AOC            7      0  CDS            14     0  FSP            9      0  LCI            4      0  MES            18     0  MRPP           5      0  PCP            983    0                                                    PPD            54     0  PPM            13     0                           PS             208    0  UDP            55     0
020507QUINTOS                       00000000000  534    474    11     22     AOC            5      0  CDS            13     0  FSP            14     0  LCI            1      0  MES            17     0  MRPP           1      0  PCP            260    0                                                    PPD            32     0  PPM            6      0                           PS             82     0  UDP            10     0
020508SALVADA                       00000000000  1253   1097   7      25     AOC            4      0  CDS            28     0  FSP            9      0  LCI            3      0  MES            10     0  MRPP           4      0  PCP            651    0                                                    PPD            156    0  PPM            4      0                           PS             183    0  UDP            13     0
020509B  SALVADOR                   00000000000  3841   3398   21     61     AOC            4      0  CDS            191    0  FSP            21     0  LCI            4      0  MES            50     0  MRPP           10     0  PCP            1465   0                                                    PPD            340    0  PPM            7      0                           PS             1098   0  UDP            126    0
020510SANTA CLARA DE LOUREDO        00000000000  712    667    1      7      AOC            0      0  CDS            4      0  FSP            6      0  LCI            2      0  MES            8      0  MRPP           1      0  PCP            354    0                                                    PPD            12     0  PPM            0      0                           PS             227    0  UDP            45     0
020511B  STA MARIA DA FEIRA         00000000000  2756   2289   26     39     AOC            4      0  CDS            123    0  FSP            17     0  LCI            4      0  MES            46     0  MRPP           10     0  PCP            1178   0                                                    PPD            137    0  PPM            5      0                           PS             606    0  UDP            94     0
020512SANTA VITORIA                 00000000000  866    793    3      26     AOC            2      0  CDS            36     0  FSP            6      0  LCI            3      0  MES            11     0  MRPP           2      0  PCP            413    0                                                    PPD            38     0  PPM            4      0                           PS             241    0  UDP            8      0
020513B  SANTIAGO MAIOR             00000000000  4295   3886   37     45     AOC            12     0  CDS            188    0  FSP            25     0  LCI            10     0  MES            95     0  MRPP           14     0  PCP            1865   0                                                    PPD            250    0  PPM            5      0                           PS             1237   0  UDP            103    0
020514SAO BRISSOS                   00000000000  543    327    8      4      AOC            1      0  CDS            22     0  FSP            0      0  LCI            3      0  MES            11     0  MRPP           4      0  PCP            116    0                                                    PPD            22     0  PPM            1      0                           PS             119    0  UDP            16     0
020515B  S JOAO BAPTISTA            00000000000  4049   3285   28     43     AOC            2      0  CDS            458    0  FSP            11     0  LCI            3      0  MES            57     0  MRPP           17     0  PCP            835    0                                                    PPD            507    0  PPM            8      0                           PS             1231   0  UDP            85     0
020516SAO MATIAS                    00000000000  571    527    0      11     AOC            3      0  CDS            23     0  FSP            7      0  LCI            2      0  MES            15     0  MRPP           2      0  PCP            250    0                                                    PPD            66     0  PPM            2      0                           PS             139    0  UDP            7      0
020517TRINDADE                      00000000000  470    387    3      27     AOC            1      0  CDS            12     0  FSP            3      0  LCI            4      0  MES            5      0  MRPP           0      0  PCP            145    0                                                    PPD            24     0  PPM            2      0                           PS             157    0  UDP            4      0
020518TRIGACHES                     500       0  0      0      0      0
020601CASEVEL                       00000000000  326    287    4      8      AOC            1      0  CDS            6      0  FSP            2      0  LCI            0      0  MES            4      0  MRPP           0      0  PCP            105    0                                                    PPD            27     0  PPM            2      0                           PS             119    0  UDP            9      0
020602CASTRO VERDE                  00000000000  3164   2582   35     51     AOC            6      0  CDS            69     0  FSP            24     0  LCI            8      0  MES            24     0  MRPP           10     0  PCP            1309   0                                                    PPD            228    0  PPM            13     0                           PS             693    0  UDP            112    0
020603ENTRADAS                      00000000000  781    609    16     20     AOC            2      0  CDS            10     0  FSP            9      0  LCI            3      0  MES            7      0  MRPP           1      0  PCP            390    0                                                    PPD            28     0  PPM            8      0                           PS             107    0  UDP            8      0
